{
  "contractName": "MultiSigWalletMock",
  "abi": [
    {
      "constant": true,
      "inputs": [
        {
          "name": "",
          "type": "uint256"
        }
      ],
      "name": "owners",
      "outputs": [
        {
          "name": "",
          "type": "address"
        }
      ],
      "payable": false,
      "stateMutability": "view",
      "type": "function"
    },
    {
      "constant": false,
      "inputs": [
        {
          "name": "owner",
          "type": "address"
        }
      ],
      "name": "removeOwner",
      "outputs": [],
      "payable": false,
      "stateMutability": "nonpayable",
      "type": "function"
    },
    {
      "constant": false,
      "inputs": [
        {
          "name": "transactionId",
          "type": "uint256"
        }
      ],
      "name": "revokeConfirmation",
      "outputs": [],
      "payable": false,
      "stateMutability": "nonpayable",
      "type": "function"
    },
    {
      "constant": true,
      "inputs": [
        {
          "name": "",
          "type": "address"
        }
      ],
      "name": "isOwner",
      "outputs": [
        {
          "name": "",
          "type": "bool"
        }
      ],
      "payable": false,
      "stateMutability": "view",
      "type": "function"
    },
    {
      "constant": true,
      "inputs": [
        {
          "name": "",
          "type": "uint256"
        },
        {
          "name": "",
          "type": "address"
        }
      ],
      "name": "confirmations",
      "outputs": [
        {
          "name": "",
          "type": "bool"
        }
      ],
      "payable": false,
      "stateMutability": "view",
      "type": "function"
    },
    {
      "constant": false,
      "inputs": [],
      "name": "createCoin",
      "outputs": [],
      "payable": false,
      "stateMutability": "nonpayable",
      "type": "function"
    },
    {
      "constant": true,
      "inputs": [
        {
          "name": "pending",
          "type": "bool"
        },
        {
          "name": "executed",
          "type": "bool"
        }
      ],
      "name": "getTransactionCount",
      "outputs": [
        {
          "name": "count",
          "type": "uint256"
        }
      ],
      "payable": false,
      "stateMutability": "view",
      "type": "function"
    },
    {
      "constant": false,
      "inputs": [
        {
          "name": "owner",
          "type": "address"
        }
      ],
      "name": "addOwner",
      "outputs": [],
      "payable": false,
      "stateMutability": "nonpayable",
      "type": "function"
    },
    {
      "constant": true,
      "inputs": [
        {
          "name": "transactionId",
          "type": "uint256"
        }
      ],
      "name": "isConfirmed",
      "outputs": [
        {
          "name": "",
          "type": "bool"
        }
      ],
      "payable": false,
      "stateMutability": "view",
      "type": "function"
    },
    {
      "constant": true,
      "inputs": [
        {
          "name": "transactionId",
          "type": "uint256"
        }
      ],
      "name": "getConfirmationCount",
      "outputs": [
        {
          "name": "count",
          "type": "uint256"
        }
      ],
      "payable": false,
      "stateMutability": "view",
      "type": "function"
    },
    {
      "constant": true,
      "inputs": [
        {
          "name": "",
          "type": "uint256"
        }
      ],
      "name": "transactions",
      "outputs": [
        {
          "name": "destination",
          "type": "address"
        },
        {
          "name": "value",
          "type": "uint256"
        },
        {
          "name": "data",
          "type": "bytes"
        },
        {
          "name": "executed",
          "type": "bool"
        }
      ],
      "payable": false,
      "stateMutability": "view",
      "type": "function"
    },
    {
      "constant": true,
      "inputs": [],
      "name": "getOwners",
      "outputs": [
        {
          "name": "",
          "type": "address[]"
        }
      ],
      "payable": false,
      "stateMutability": "view",
      "type": "function"
    },
    {
      "constant": true,
      "inputs": [
        {
          "name": "from",
          "type": "uint256"
        },
        {
          "name": "to",
          "type": "uint256"
        },
        {
          "name": "pending",
          "type": "bool"
        },
        {
          "name": "executed",
          "type": "bool"
        }
      ],
      "name": "getTransactionIds",
      "outputs": [
        {
          "name": "_transactionIds",
          "type": "uint256[]"
        }
      ],
      "payable": false,
      "stateMutability": "view",
      "type": "function"
    },
    {
      "constant": true,
      "inputs": [
        {
          "name": "transactionId",
          "type": "uint256"
        }
      ],
      "name": "getConfirmations",
      "outputs": [
        {
          "name": "_confirmations",
          "type": "address[]"
        }
      ],
      "payable": false,
      "stateMutability": "view",
      "type": "function"
    },
    {
      "constant": true,
      "inputs": [],
      "name": "transactionCount",
      "outputs": [
        {
          "name": "",
          "type": "uint256"
        }
      ],
      "payable": false,
      "stateMutability": "view",
      "type": "function"
    },
    {
      "constant": false,
      "inputs": [
        {
          "name": "_required",
          "type": "uint256"
        }
      ],
      "name": "changeRequirement",
      "outputs": [],
      "payable": false,
      "stateMutability": "nonpayable",
      "type": "function"
    },
    {
      "constant": false,
      "inputs": [
        {
          "name": "transactionId",
          "type": "uint256"
        }
      ],
      "name": "confirmTransaction",
      "outputs": [],
      "payable": false,
      "stateMutability": "nonpayable",
      "type": "function"
    },
    {
      "constant": false,
      "inputs": [
        {
          "name": "destination",
          "type": "address"
        },
        {
          "name": "value",
          "type": "uint256"
        },
        {
          "name": "data",
          "type": "bytes"
        }
      ],
      "name": "submitTransaction",
      "outputs": [
        {
          "name": "transactionId",
          "type": "uint256"
        }
      ],
      "payable": false,
      "stateMutability": "nonpayable",
      "type": "function"
    },
    {
      "constant": true,
      "inputs": [],
      "name": "MAX_OWNER_COUNT",
      "outputs": [
        {
          "name": "",
          "type": "uint256"
        }
      ],
      "payable": false,
      "stateMutability": "view",
      "type": "function"
    },
    {
      "constant": true,
      "inputs": [],
      "name": "required",
      "outputs": [
        {
          "name": "",
          "type": "uint256"
        }
      ],
      "payable": false,
      "stateMutability": "view",
      "type": "function"
    },
    {
      "constant": false,
      "inputs": [
        {
          "name": "owner",
          "type": "address"
        },
        {
          "name": "newOwner",
          "type": "address"
        }
      ],
      "name": "replaceOwner",
      "outputs": [],
      "payable": false,
      "stateMutability": "nonpayable",
      "type": "function"
    },
    {
      "constant": false,
      "inputs": [
        {
          "name": "transactionId",
          "type": "uint256"
        }
      ],
      "name": "executeTransaction",
      "outputs": [],
      "payable": false,
      "stateMutability": "nonpayable",
      "type": "function"
    },
    {
      "inputs": [
        {
          "name": "_owners",
          "type": "address[]"
        },
        {
          "name": "_required",
          "type": "uint256"
        }
      ],
      "payable": false,
      "stateMutability": "nonpayable",
      "type": "constructor"
    },
    {
      "payable": true,
      "stateMutability": "payable",
      "type": "fallback"
    },
    {
      "anonymous": false,
      "inputs": [
        {
          "indexed": true,
          "name": "sender",
          "type": "address"
        },
        {
          "indexed": true,
          "name": "transactionId",
          "type": "uint256"
        }
      ],
      "name": "Confirmation",
      "type": "event"
    },
    {
      "anonymous": false,
      "inputs": [
        {
          "indexed": true,
          "name": "sender",
          "type": "address"
        },
        {
          "indexed": true,
          "name": "transactionId",
          "type": "uint256"
        }
      ],
      "name": "Revocation",
      "type": "event"
    },
    {
      "anonymous": false,
      "inputs": [
        {
          "indexed": true,
          "name": "transactionId",
          "type": "uint256"
        }
      ],
      "name": "Submission",
      "type": "event"
    },
    {
      "anonymous": false,
      "inputs": [
        {
          "indexed": true,
          "name": "transactionId",
          "type": "uint256"
        }
      ],
      "name": "Execution",
      "type": "event"
    },
    {
      "anonymous": false,
      "inputs": [
        {
          "indexed": true,
          "name": "transactionId",
          "type": "uint256"
        }
      ],
      "name": "ExecutionFailure",
      "type": "event"
    },
    {
      "anonymous": false,
      "inputs": [
        {
          "indexed": true,
          "name": "sender",
          "type": "address"
        },
        {
          "indexed": false,
          "name": "value",
          "type": "uint256"
        }
      ],
      "name": "Deposit",
      "type": "event"
    },
    {
      "anonymous": false,
      "inputs": [
        {
          "indexed": true,
          "name": "owner",
          "type": "address"
        }
      ],
      "name": "OwnerAddition",
      "type": "event"
    },
    {
      "anonymous": false,
      "inputs": [
        {
          "indexed": true,
          "name": "owner",
          "type": "address"
        }
      ],
      "name": "OwnerRemoval",
      "type": "event"
    },
    {
      "anonymous": false,
      "inputs": [
        {
          "indexed": false,
          "name": "required",
          "type": "uint256"
        }
      ],
      "name": "RequirementChange",
      "type": "event"
    },
    {
      "anonymous": false,
      "inputs": [
        {
          "indexed": false,
          "name": "coin",
          "type": "address"
        }
      ],
      "name": "CoinCreation",
      "type": "event"
    }
  ],
  "bytecode": "0x60606040526001600660006101000a81548160ff02191690831515021790555034156200002b57600080fd5b604051620041f7380380620041f7833981016040528080518201919060200180519060200190919050508181600082518260328211806200006b57508181115b80620000775750600081145b80620000835750600082145b156200008e57600080fd5b600092505b8451831015620001c557600260008685815181101515620000b057fe5b9060200190602002015173ffffffffffffffffffffffffffffffffffffffff1673ffffffffffffffffffffffffffffffffffffffff16815260200190815260200160002060009054906101000a900460ff16806200013c5750600085848151811015156200011a57fe5b9060200190602002015173ffffffffffffffffffffffffffffffffffffffff16145b156200014757600080fd5b60016002600087868151811015156200015c57fe5b9060200190602002015173ffffffffffffffffffffffffffffffffffffffff1673ffffffffffffffffffffffffffffffffffffffff16815260200190815260200160002060006101000a81548160ff021916908315150217905550828060010193505062000093565b8460039080519060200190620001dd929190620001f2565b508360048190555050505050505050620002c7565b8280548282559060005260206000209081019282156200026e579160200282015b828111156200026d5782518260006101000a81548173ffffffffffffffffffffffffffffffffffffffff021916908373ffffffffffffffffffffffffffffffffffffffff1602179055509160200191906001019062000213565b5b5090506200027d919062000281565b5090565b620002c491905b80821115620002c057600081816101000a81549073ffffffffffffffffffffffffffffffffffffffff02191690555060010162000288565b5090565b90565b613f2080620002d76000396000f3006060604052600436106200013f576000357c0100000000000000000000000000000000000000000000000000000000900463ffffffff168063025e7c27146200019a578063173825d9146200020057806320ea8d86146200023c5780632f54bf6e14620002625780633411c81c14620002b65780633d03ec29146200031357806354741525146200032b5780637065cb481462000372578063784547a714620003ae5780638b51d13f14620003ec5780639ace38c21462000426578063a0e67e2b146200052b578063a8abe69a146200059a578063b5dc40c31462000636578063b77bf60014620006b3578063ba51a6df14620006df578063c01a8c841462000705578063c6427474146200072b578063d74f8edd14620007c7578063dc8452cd14620007f3578063e20056e6146200081f578063ee22610b146200087a575b600034111562000198573373ffffffffffffffffffffffffffffffffffffffff167fe1fffcc4923d04b559f4d29a8bfc6cda04eb5b0d3c460751c2402c5c5cc9109c346040518082815260200191505060405180910390a25b005b3415620001a657600080fd5b620001be6004808035906020019091905050620008a0565b604051808273ffffffffffffffffffffffffffffffffffffffff1673ffffffffffffffffffffffffffffffffffffffff16815260200191505060405180910390f35b34156200020c57600080fd5b6200023a600480803573ffffffffffffffffffffffffffffffffffffffff16906020019091905050620008e0565b005b34156200024857600080fd5b62000260600480803590602001909190505062000b4f565b005b34156200026e57600080fd5b6200029c600480803573ffffffffffffffffffffffffffffffffffffffff1690602001909190505062000cf8565b604051808215151515815260200191505060405180910390f35b3415620002c257600080fd5b620002f9600480803590602001909190803573ffffffffffffffffffffffffffffffffffffffff1690602001909190505062000d18565b604051808215151515815260200191505060405180910390f35b34156200031f57600080fd5b6200032962000d47565b005b34156200033757600080fd5b6200035c60048080351515906020019091908035151590602001909190505062000e0a565b6040518082815260200191505060405180910390f35b34156200037e57600080fd5b620003ac600480803573ffffffffffffffffffffffffffffffffffffffff1690602001909190505062000ea2565b005b3415620003ba57600080fd5b620003d2600480803590602001909190505062001066565b604051808215151515815260200191505060405180910390f35b3415620003f857600080fd5b62000410600480803590602001909190505062001152565b6040518082815260200191505060405180910390f35b34156200043257600080fd5b6200044a600480803590602001909190505062001222565b604051808573ffffffffffffffffffffffffffffffffffffffff1673ffffffffffffffffffffffffffffffffffffffff1681526020018481526020018060200183151515158152602001828103825284818154600181600116156101000203166002900481526020019150805460018160011615610100020316600290048015620005195780601f10620004ed5761010080835404028352916020019162000519565b820191906000526020600020905b815481529060010190602001808311620004fb57829003601f168201915b50509550505050505060405180910390f35b34156200053757600080fd5b620005416200127e565b6040518080602001828103825283818151815260200191508051906020019060200280838360005b838110156200058657808201518184015260208101905062000569565b505050509050019250505060405180910390f35b3415620005a657600080fd5b620005dd60048080359060200190919080359060200190919080351515906020019091908035151590602001909190505062001316565b6040518080602001828103825283818151815260200191508051906020019060200280838360005b838110156200062257808201518184015260208101905062000605565b505050509050019250505060405180910390f35b34156200064257600080fd5b6200065a600480803590602001909190505062001483565b6040518080602001828103825283818151815260200191508051906020019060200280838360005b838110156200069f57808201518184015260208101905062000682565b505050509050019250505060405180910390f35b3415620006bf57600080fd5b620006c9620016bd565b6040518082815260200191505060405180910390f35b3415620006eb57600080fd5b620007036004808035906020019091905050620016c3565b005b34156200071157600080fd5b6200072960048080359060200190919050506200173f565b005b34156200073757600080fd5b620007b1600480803573ffffffffffffffffffffffffffffffffffffffff1690602001909190803590602001909190803590602001908201803590602001908080601f016020809104026020016040519081016040528093929190818152602001838380828437820191505050505050919050506200191d565b6040518082815260200191505060405180910390f35b3415620007d357600080fd5b620007dd62001940565b6040518082815260200191505060405180910390f35b3415620007ff57600080fd5b6200080962001945565b6040518082815260200191505060405180910390f35b34156200082b57600080fd5b62000878600480803573ffffffffffffffffffffffffffffffffffffffff1690602001909190803573ffffffffffffffffffffffffffffffffffffffff169060200190919050506200194b565b005b34156200088657600080fd5b6200089e600480803590602001909190505062001c2e565b005b600381815481101515620008b057fe5b90600052602060002090016000915054906101000a900473ffffffffffffffffffffffffffffffffffffffff1681565b600081600260008273ffffffffffffffffffffffffffffffffffffffff1673ffffffffffffffffffffffffffffffffffffffff16815260200190815260200160002060009054906101000a900460ff1615156200093c57600080fd5b6000600260008573ffffffffffffffffffffffffffffffffffffffff1673ffffffffffffffffffffffffffffffffffffffff16815260200190815260200160002060006101000a81548160ff021916908315150217905550600091505b60016003805490500382101562000acb578273ffffffffffffffffffffffffffffffffffffffff16600383815481101515620009d157fe5b906000526020600020900160009054906101000a900473ffffffffffffffffffffffffffffffffffffffff1673ffffffffffffffffffffffffffffffffffffffff16141562000abd57600360016003805490500381548110151562000a3257fe5b906000526020600020900160009054906101000a900473ffffffffffffffffffffffffffffffffffffffff1660038381548110151562000a6e57fe5b906000526020600020900160006101000a81548173ffffffffffffffffffffffffffffffffffffffff021916908373ffffffffffffffffffffffffffffffffffffffff16021790555062000acb565b818060010192505062000999565b600160038181805490500391508162000ae5919062001f45565b50600380549050600454111562000b075762000b06600380549050620016c3565b5b8273ffffffffffffffffffffffffffffffffffffffff167f8001553a916ef2f495d26a907cc54d96ed840d7bda71e73194bf5a9df7a76b9060405160405180910390a2505050565b33600260008273ffffffffffffffffffffffffffffffffffffffff1673ffffffffffffffffffffffffffffffffffffffff16815260200190815260200160002060009054906101000a900460ff16151562000ba957600080fd5b81336001600083815260200190815260200160002060008273ffffffffffffffffffffffffffffffffffffffff1673ffffffffffffffffffffffffffffffffffffffff16815260200190815260200160002060009054906101000a900460ff16151562000c1557600080fd5b8360008082815260200190815260200160002060030160009054906101000a900460ff161562000c4457600080fd5b60006001600087815260200190815260200160002060003373ffffffffffffffffffffffffffffffffffffffff1673ffffffffffffffffffffffffffffffffffffffff16815260200190815260200160002060006101000a81548160ff021916908315150217905550843373ffffffffffffffffffffffffffffffffffffffff167ff6a317157440607f36269043eb55f1287a5a19ba2216afeab88cd46cbcfb88e960405160405180910390a35050505050565b60026020528060005260406000206000915054906101000a900460ff1681565b60016020528160005260406000206020528060005260406000206000915091509054906101000a900460ff1681565b60011515600660009054906101000a900460ff16151514151562000d6a57600080fd5b7faae68a8a885a02fa07c5e1431d58b37a38223b24d17b8435a1942dd778bd6bef62000d9562001f74565b604051809103906000f080151562000dac57600080fd5b604051808273ffffffffffffffffffffffffffffffffffffffff1673ffffffffffffffffffffffffffffffffffffffff16815260200191505060405180910390a16000600660006101000a81548160ff021916908315150217905550565b600080600090505b60055481101562000e9b5783801562000e4b575060008082815260200190815260200160002060030160009054906101000a900460ff16155b8062000e80575082801562000e7f575060008082815260200190815260200160002060030160009054906101000a900460ff165b5b1562000e8d576001820191505b808060010191505062000e12565b5092915050565b80600260008273ffffffffffffffffffffffffffffffffffffffff1673ffffffffffffffffffffffffffffffffffffffff16815260200190815260200160002060009054906101000a900460ff161562000efb57600080fd5b8160008173ffffffffffffffffffffffffffffffffffffffff16141562000f2157600080fd5b600160038054905001600454603282118062000f3c57508181115b8062000f485750600081145b8062000f545750600082145b1562000f5f57600080fd5b6001600260008773ffffffffffffffffffffffffffffffffffffffff1673ffffffffffffffffffffffffffffffffffffffff16815260200190815260200160002060006101000a81548160ff0219169083151502179055506003805480600101828162000fcd919062001f85565b9160005260206000209001600087909190916101000a81548173ffffffffffffffffffffffffffffffffffffffff021916908373ffffffffffffffffffffffffffffffffffffffff160217905550508473ffffffffffffffffffffffffffffffffffffffff167ff39e6e1eb0edcf53c221607b54b00cd28f3196fed0a24994dc308b8f611b682d60405160405180910390a25050505050565b6000806000809150600090505b6003805490508110156200114a57600160008581526020019081526020016000206000600383815481101515620010a657fe5b906000526020600020900160009054906101000a900473ffffffffffffffffffffffffffffffffffffffff1673ffffffffffffffffffffffffffffffffffffffff1673ffffffffffffffffffffffffffffffffffffffff16815260200190815260200160002060009054906101000a900460ff161562001127576001820191505b6004548214156200113c57600192506200114b565b808060010191505062001073565b5b5050919050565b600080600090505b6003805490508110156200121c576001600084815260200190815260200160002060006003838154811015156200118d57fe5b906000526020600020900160009054906101000a900473ffffffffffffffffffffffffffffffffffffffff1673ffffffffffffffffffffffffffffffffffffffff1673ffffffffffffffffffffffffffffffffffffffff16815260200190815260200160002060009054906101000a900460ff16156200120e576001820191505b80806001019150506200115a565b50919050565b60006020528060005260406000206000915090508060000160009054906101000a900473ffffffffffffffffffffffffffffffffffffffff169080600101549080600201908060030160009054906101000a900460ff16905084565b6200128862001fb4565b60038054806020026020016040519081016040528092919081815260200182805480156200130c57602002820191906000526020600020905b8160009054906101000a900473ffffffffffffffffffffffffffffffffffffffff1673ffffffffffffffffffffffffffffffffffffffff1681526020019060010190808311620012c1575b5050505050905090565b6200132062001fc8565b6200132a62001fc8565b6000806005546040518059106200133e5750595b9080825280602002602001820160405250925060009150600090505b600554811015620014015785801562001393575060008082815260200190815260200160002060030160009054906101000a900460ff16155b80620013c85750848015620013c7575060008082815260200190815260200160002060030160009054906101000a900460ff165b5b15620013f357808383815181101515620013de57fe5b90602001906020020181815250506001820191505b80806001019150506200135a565b878703604051805910620014125750595b908082528060200260200182016040525093508790505b86811015620014785782818151811015156200144157fe5b90602001906020020151848983038151811015156200145c57fe5b9060200190602002018181525050808060010191505062001429565b505050949350505050565b6200148d62001fb4565b6200149762001fb4565b600080600380549050604051805910620014ae5750595b9080825280602002602001820160405250925060009150600090505b6003805490508110156200161357600160008681526020019081526020016000206000600383815481101515620014fd57fe5b906000526020600020900160009054906101000a900473ffffffffffffffffffffffffffffffffffffffff1673ffffffffffffffffffffffffffffffffffffffff1673ffffffffffffffffffffffffffffffffffffffff16815260200190815260200160002060009054906101000a900460ff161562001605576003818154811015156200158757fe5b906000526020600020900160009054906101000a900473ffffffffffffffffffffffffffffffffffffffff168383815181101515620015c257fe5b9060200190602002019073ffffffffffffffffffffffffffffffffffffffff16908173ffffffffffffffffffffffffffffffffffffffff16815250506001820191505b8080600101915050620014ca565b81604051805910620016225750595b90808252806020026020018201604052509350600090505b81811015620016b55782818151811015156200165257fe5b9060200190602002015184828151811015156200166b57fe5b9060200190602002019073ffffffffffffffffffffffffffffffffffffffff16908173ffffffffffffffffffffffffffffffffffffffff168152505080806001019150506200163a565b505050919050565b60055481565b600380549050816032821180620016d957508181115b80620016e55750600081145b80620016f15750600082145b15620016fc57600080fd5b826004819055507fa3f1ee9126a074d9326c682f561767f710e927faa811f7a99829d49dc421797a836040518082815260200191505060405180910390a1505050565b33600260008273ffffffffffffffffffffffffffffffffffffffff1673ffffffffffffffffffffffffffffffffffffffff16815260200190815260200160002060009054906101000a900460ff1615156200179957600080fd5b81600080600083815260200190815260200160002060000160009054906101000a900473ffffffffffffffffffffffffffffffffffffffff1673ffffffffffffffffffffffffffffffffffffffff161415620017f457600080fd5b82336001600083815260200190815260200160002060008273ffffffffffffffffffffffffffffffffffffffff1673ffffffffffffffffffffffffffffffffffffffff16815260200190815260200160002060009054906101000a900460ff16156200185f57600080fd5b600180600087815260200190815260200160002060003373ffffffffffffffffffffffffffffffffffffffff1673ffffffffffffffffffffffffffffffffffffffff16815260200190815260200160002060006101000a81548160ff021916908315150217905550843373ffffffffffffffffffffffffffffffffffffffff167f4a504a94899432a9846e1aa406dceb1bcfd538bb839071d49d1e5e23f5be30ef60405160405180910390a3620019168562001c2e565b5050505050565b60006200192c84848462001df2565b905062001939816200173f565b9392505050565b603281565b60045481565b600082600260008273ffffffffffffffffffffffffffffffffffffffff1673ffffffffffffffffffffffffffffffffffffffff16815260200190815260200160002060009054906101000a900460ff161515620019a757600080fd5b82600260008273ffffffffffffffffffffffffffffffffffffffff1673ffffffffffffffffffffffffffffffffffffffff16815260200190815260200160002060009054906101000a900460ff161562001a0057600080fd5b600092505b60038054905083101562001af1578473ffffffffffffffffffffffffffffffffffffffff1660038481548110151562001a3a57fe5b906000526020600020900160009054906101000a900473ffffffffffffffffffffffffffffffffffffffff1673ffffffffffffffffffffffffffffffffffffffff16141562001ae3578360038481548110151562001a9457fe5b906000526020600020900160006101000a81548173ffffffffffffffffffffffffffffffffffffffff021916908373ffffffffffffffffffffffffffffffffffffffff16021790555062001af1565b828060010193505062001a05565b6000600260008773ffffffffffffffffffffffffffffffffffffffff1673ffffffffffffffffffffffffffffffffffffffff16815260200190815260200160002060006101000a81548160ff0219169083151502179055506001600260008673ffffffffffffffffffffffffffffffffffffffff1673ffffffffffffffffffffffffffffffffffffffff16815260200190815260200160002060006101000a81548160ff0219169083151502179055508473ffffffffffffffffffffffffffffffffffffffff167f8001553a916ef2f495d26a907cc54d96ed840d7bda71e73194bf5a9df7a76b9060405160405180910390a28373ffffffffffffffffffffffffffffffffffffffff167ff39e6e1eb0edcf53c221607b54b00cd28f3196fed0a24994dc308b8f611b682d60405160405180910390a25050505050565b60008160008082815260200190815260200160002060030160009054906101000a900460ff161562001c5f57600080fd5b62001c6a8362001066565b1562001ded57600080848152602001908152602001600020915060018260030160006101000a81548160ff0219169083151502179055508160000160009054906101000a900473ffffffffffffffffffffffffffffffffffffffff1673ffffffffffffffffffffffffffffffffffffffff16826001015483600201604051808280546001816001161561010002031660029004801562001d4e5780601f1062001d225761010080835404028352916020019162001d4e565b820191906000526020600020905b81548152906001019060200180831162001d3057829003601f168201915b505091505060006040518083038185876187965a03f1925050501562001da157827f33e13ecb54c3076d8e8bb8c2881800a4d972b792045ffae98fdf46df365fed7560405160405180910390a262001dec565b827f526441bb6c1aba3c9a4a6ca1d6545da9c2333c8c48343ef398eb858d72b7923660405160405180910390a260008260030160006101000a81548160ff0219169083151502179055505b5b505050565b60008360008173ffffffffffffffffffffffffffffffffffffffff16141562001e1a57600080fd5b60055491506080604051908101604052808673ffffffffffffffffffffffffffffffffffffffff1681526020018581526020018481526020016000151581525060008084815260200190815260200160002060008201518160000160006101000a81548173ffffffffffffffffffffffffffffffffffffffff021916908373ffffffffffffffffffffffffffffffffffffffff16021790555060208201518160010155604082015181600201908051906020019062001edb92919062001fdc565b5060608201518160030160006101000a81548160ff0219169083151502179055509050506001600560008282540192505081905550817fc0ba8fe4b176c1714197d43b9cc6bcf797a4a7461c5fe8d0ef6e184ae7601e5160405160405180910390a2509392505050565b81548183558181151162001f6f5781836000526020600020918201910162001f6e919062002063565b5b505050565b604051611e69806200208c83390190565b81548183558181151162001faf5781836000526020600020918201910162001fae919062002063565b5b505050565b602060405190810160405280600081525090565b602060405190810160405280600081525090565b828054600181600116156101000203166002900490600052602060002090601f016020900481019282601f106200201f57805160ff191683800117855562002050565b8280016001018555821562002050579182015b828111156200204f57825182559160200191906001019062002032565b5b5090506200205f919062002063565b5090565b6200208891905b80821115620020845760008160009055506001016200206a565b5090565b905600606060405260016000806101000a81548160ff021916908315150217905550655af3107a40006001556319a14780600255600a6008556064600854600154028115156200004857fe5b04600955670429d069189e0000600a5568015af1d78b58c40000600b556000600c556000600d60006101000a81548160ff02191690831515021790555034156200009157600080fd5b33600360006101000a81548173ffffffffffffffffffffffffffffffffffffffff021916908373ffffffffffffffffffffffffffffffffffffffff160217905550620000f3600254620001d56401000000000262001474176401000000009004565b60015460046000600360009054906101000a900473ffffffffffffffffffffffffffffffffffffffff1673ffffffffffffffffffffffffffffffffffffffff1673ffffffffffffffffffffffffffffffffffffffff16815260200190815260200160002081905550600360009054906101000a900473ffffffffffffffffffffffffffffffffffffffff1673ffffffffffffffffffffffffffffffffffffffff1660007fddf252ad1be2c89b69c2b068fc378daa952ba7f163c4a11628f55a4df523b3ef6001546040518082815260200191505060405180910390a36200026d565b600360009054906101000a900473ffffffffffffffffffffffffffffffffffffffff1673ffffffffffffffffffffffffffffffffffffffff163373ffffffffffffffffffffffffffffffffffffffff161415156200023257600080fd5b6000811115156200024257600080fd5b806002819055506002546b204fce5e3e250261100000008115156200026357fe5b04600b8190555050565b611bec806200027d6000396000f30060606040526004361061018b576000357c0100000000000000000000000000000000000000000000000000000000900463ffffffff1680630188fdef1461019557806306fdde03146101b8578063095ea7b31461024657806318160ddd146102a057806323526a34146102c957806323b872dd146102de5780632fb1746d14610357578063313ce5671461036c5780633c2d6447146103955780633c50afe1146103b85780633ccfd60b146103e15780633eaaf86b1461040e578063430558c214610437578063501e3a2c1461044157806354840c6e1461046a57806363ae8d6c146104975780636b342eb8146104ba57806370a08231146104e357806378f2144b146105305780637fd2304f146105595780638da5cb5b1461058257806395d89b41146105d75780639b1fe0d4146106655780639fc39549146106b6578063a9059cbb14610710578063b5f7f6361461076a578063bfb9f08814610793578063dd62ed3e146107ed578063e1254fba14610859578063e98cf987146108a6578063f9323a32146108bb575b6101936108e8565b005b34156101a057600080fd5b6101b66004808035906020019091905050610c73565b005b34156101c357600080fd5b6101cb610cd9565b6040518080602001828103825283818151815260200191508051906020019080838360005b8381101561020b5780820151818401526020810190506101f0565b50505050905090810190601f1680156102385780820380516001836020036101000a031916815260200191505b509250505060405180910390f35b341561025157600080fd5b610286600480803573ffffffffffffffffffffffffffffffffffffffff16906020019091908035906020019091905050610d12565b604051808215151515815260200191505060405180910390f35b34156102ab57600080fd5b6102b3610e7e565b6040518082815260200191505060405180910390f35b34156102d457600080fd5b6102dc610e88565b005b34156102e957600080fd5b61033d600480803573ffffffffffffffffffffffffffffffffffffffff1690602001909190803573ffffffffffffffffffffffffffffffffffffffff16906020019091908035906020019091905050610f00565b604051808215151515815260200191505060405180910390f35b341561036257600080fd5b61036a611281565b005b341561037757600080fd5b61037f6112fa565b6040518082815260200191505060405180910390f35b34156103a057600080fd5b6103b660048080359060200190919050506112ff565b005b34156103c357600080fd5b6103cb61137e565b6040518082815260200191505060405180910390f35b34156103ec57600080fd5b6103f4611384565b604051808215151515815260200191505060405180910390f35b341561041957600080fd5b610421611455565b6040518082815260200191505060405180910390f35b61043f6108e8565b005b341561044c57600080fd5b61045461145b565b6040518082815260200191505060405180910390f35b341561047557600080fd5b61047d611461565b604051808215151515815260200191505060405180910390f35b34156104a257600080fd5b6104b86004808035906020019091905050611474565b005b34156104c557600080fd5b6104cd611509565b6040518082815260200191505060405180910390f35b34156104ee57600080fd5b61051a600480803573ffffffffffffffffffffffffffffffffffffffff1690602001909190505061150f565b6040518082815260200191505060405180910390f35b341561053b57600080fd5b610543611558565b6040518082815260200191505060405180910390f35b341561056457600080fd5b61056c61155e565b6040518082815260200191505060405180910390f35b341561058d57600080fd5b610595611564565b604051808273ffffffffffffffffffffffffffffffffffffffff1673ffffffffffffffffffffffffffffffffffffffff16815260200191505060405180910390f35b34156105e257600080fd5b6105ea61158a565b6040518080602001828103825283818151815260200191508051906020019080838360005b8381101561062a57808201518184015260208101905061060f565b50505050905090810190601f1680156106575780820380516001836020036101000a031916815260200191505b509250505060405180910390f35b341561067057600080fd5b61069c600480803573ffffffffffffffffffffffffffffffffffffffff169060200190919050506115c3565b604051808215151515815260200191505060405180910390f35b34156106c157600080fd5b61070e600480803590602001908201803590602001908080602002602001604051908101604052809392919081815260200183836020028082843782019150505050505091905050611619565b005b341561071b57600080fd5b610750600480803573ffffffffffffffffffffffffffffffffffffffff16906020019091908035906020019091905050611705565b604051808215151515815260200191505060405180910390f35b341561077557600080fd5b61077d611974565b6040518082815260200191505060405180910390f35b341561079e57600080fd5b6107eb60048080359060200190820180359060200190808060200260200160405190810160405280939291908181526020018383602002808284378201915050505050509190505061197a565b005b34156107f857600080fd5b610843600480803573ffffffffffffffffffffffffffffffffffffffff1690602001909190803573ffffffffffffffffffffffffffffffffffffffff16906020019091905050611a66565b6040518082815260200191505060405180910390f35b341561086457600080fd5b610890600480803573ffffffffffffffffffffffffffffffffffffffff16906020019091905050611aed565b6040518082815260200191505060405180910390f35b34156108b157600080fd5b6108b9611b36565b005b34156108c657600080fd5b6108ce611bae565b604051808215151515815260200191505060405180910390f35b60008060009054906101000a900460ff16151561090457600080fd5b600a5434101580156109595750600b5434600760003373ffffffffffffffffffffffffffffffffffffffff1673ffffffffffffffffffffffffffffffffffffffff168152602001908152602001600020540111155b151561096457600080fd5b600660003373ffffffffffffffffffffffffffffffffffffffff1673ffffffffffffffffffffffffffffffffffffffff16815260200190815260200160002060009054906101000a900460ff1615156109bc57600080fd5b670de0b6b3a764000060025434028115156109d357fe5b0490508060046000600360009054906101000a900473ffffffffffffffffffffffffffffffffffffffff1673ffffffffffffffffffffffffffffffffffffffff1673ffffffffffffffffffffffffffffffffffffffff1681526020019081526020016000205410151515610a4657600080fd5b8060046000600360009054906101000a900473ffffffffffffffffffffffffffffffffffffffff1673ffffffffffffffffffffffffffffffffffffffff1673ffffffffffffffffffffffffffffffffffffffff1681526020019081526020016000206000828254039250508190555080600460003373ffffffffffffffffffffffffffffffffffffffff1673ffffffffffffffffffffffffffffffffffffffff1681526020019081526020016000206000828254019250508190555034600760003373ffffffffffffffffffffffffffffffffffffffff1673ffffffffffffffffffffffffffffffffffffffff1681526020019081526020016000206000828254019250508190555080600c60008282540192505081905550600954600c54101515610b875760008060006101000a81548160ff0219169083151502179055505b3373ffffffffffffffffffffffffffffffffffffffff16600360009054906101000a900473ffffffffffffffffffffffffffffffffffffffff1673ffffffffffffffffffffffffffffffffffffffff167fddf252ad1be2c89b69c2b068fc378daa952ba7f163c4a11628f55a4df523b3ef836040518082815260200191505060405180910390a3600360009054906101000a900473ffffffffffffffffffffffffffffffffffffffff1673ffffffffffffffffffffffffffffffffffffffff166108fc349081150290604051600060405180830381858888f193505050501515610c7057600080fd5b50565b600360009054906101000a900473ffffffffffffffffffffffffffffffffffffffff1673ffffffffffffffffffffffffffffffffffffffff163373ffffffffffffffffffffffffffffffffffffffff16141515610ccf57600080fd5b80600b8190555050565b6040805190810160405280600581526020017f476966746f00000000000000000000000000000000000000000000000000000081525081565b600060011515600d60009054906101000a900460ff1615151480610d835750600360009054906101000a900473ffffffffffffffffffffffffffffffffffffffff1673ffffffffffffffffffffffffffffffffffffffff163373ffffffffffffffffffffffffffffffffffffffff16145b1515610d8e57600080fd5b81600560003373ffffffffffffffffffffffffffffffffffffffff1673ffffffffffffffffffffffffffffffffffffffff16815260200190815260200160002060008573ffffffffffffffffffffffffffffffffffffffff1673ffffffffffffffffffffffffffffffffffffffff168152602001908152602001600020819055508273ffffffffffffffffffffffffffffffffffffffff163373ffffffffffffffffffffffffffffffffffffffff167f8c5be1e5ebec7d5bd14f71427d1e84f3dd0314c0f7b2291e5b200ac8c7c3b925846040518082815260200191505060405180910390a36001905092915050565b6000600154905090565b600360009054906101000a900473ffffffffffffffffffffffffffffffffffffffff1673ffffffffffffffffffffffffffffffffffffffff163373ffffffffffffffffffffffffffffffffffffffff16141515610ee457600080fd5b60008060006101000a81548160ff021916908315150217905550565b600060011515600d60009054906101000a900460ff1615151480610f715750600360009054906101000a900473ffffffffffffffffffffffffffffffffffffffff1673ffffffffffffffffffffffffffffffffffffffff163373ffffffffffffffffffffffffffffffffffffffff16145b1515610f7c57600080fd5b81600460008673ffffffffffffffffffffffffffffffffffffffff1673ffffffffffffffffffffffffffffffffffffffff1681526020019081526020016000205410158015611047575081600560008673ffffffffffffffffffffffffffffffffffffffff1673ffffffffffffffffffffffffffffffffffffffff16815260200190815260200160002060003373ffffffffffffffffffffffffffffffffffffffff1673ffffffffffffffffffffffffffffffffffffffff1681526020019081526020016000205410155b80156110535750600082115b80156110de5750600460008473ffffffffffffffffffffffffffffffffffffffff1673ffffffffffffffffffffffffffffffffffffffff1681526020019081526020016000205482600460008673ffffffffffffffffffffffffffffffffffffffff1673ffffffffffffffffffffffffffffffffffffffff1681526020019081526020016000205401115b156112755781600460008673ffffffffffffffffffffffffffffffffffffffff1673ffffffffffffffffffffffffffffffffffffffff1681526020019081526020016000206000828254039250508190555081600560008673ffffffffffffffffffffffffffffffffffffffff1673ffffffffffffffffffffffffffffffffffffffff16815260200190815260200160002060003373ffffffffffffffffffffffffffffffffffffffff1673ffffffffffffffffffffffffffffffffffffffff1681526020019081526020016000206000828254039250508190555081600460008573ffffffffffffffffffffffffffffffffffffffff1673ffffffffffffffffffffffffffffffffffffffff168152602001908152602001600020600082825401925050819055508273ffffffffffffffffffffffffffffffffffffffff168473ffffffffffffffffffffffffffffffffffffffff167fddf252ad1be2c89b69c2b068fc378daa952ba7f163c4a11628f55a4df523b3ef846040518082815260200191505060405180910390a36001905061127a565b600090505b9392505050565b600360009054906101000a900473ffffffffffffffffffffffffffffffffffffffff1673ffffffffffffffffffffffffffffffffffffffff163373ffffffffffffffffffffffffffffffffffffffff161415156112dd57600080fd5b6001600d60006101000a81548160ff021916908315150217905550565b600581565b600360009054906101000a900473ffffffffffffffffffffffffffffffffffffffff1673ffffffffffffffffffffffffffffffffffffffff163373ffffffffffffffffffffffffffffffffffffffff1614151561135b57600080fd5b8060088190555060646008546001540281151561137457fe5b0460098190555050565b60095481565b6000600360009054906101000a900473ffffffffffffffffffffffffffffffffffffffff1673ffffffffffffffffffffffffffffffffffffffff163373ffffffffffffffffffffffffffffffffffffffff161415156113e257600080fd5b600360009054906101000a900473ffffffffffffffffffffffffffffffffffffffff1673ffffffffffffffffffffffffffffffffffffffff166108fc3073ffffffffffffffffffffffffffffffffffffffff16319081150290604051600060405180830381858888f19350505050905090565b60015481565b60085481565b600d60009054906101000a900460ff1681565b600360009054906101000a900473ffffffffffffffffffffffffffffffffffffffff1673ffffffffffffffffffffffffffffffffffffffff163373ffffffffffffffffffffffffffffffffffffffff161415156114d057600080fd5b6000811115156114df57600080fd5b806002819055506002546b204fce5e3e250261100000008115156114ff57fe5b04600b8190555050565b600a5481565b6000600460008373ffffffffffffffffffffffffffffffffffffffff1673ffffffffffffffffffffffffffffffffffffffff168152602001908152602001600020549050919050565b60025481565b600b5481565b600360009054906101000a900473ffffffffffffffffffffffffffffffffffffffff1681565b6040805190810160405280600381526020017f47544f000000000000000000000000000000000000000000000000000000000081525081565b6000600660008373ffffffffffffffffffffffffffffffffffffffff1673ffffffffffffffffffffffffffffffffffffffff16815260200190815260200160002060009054906101000a900460ff169050919050565b6000600360009054906101000a900473ffffffffffffffffffffffffffffffffffffffff1673ffffffffffffffffffffffffffffffffffffffff163373ffffffffffffffffffffffffffffffffffffffff1614151561167757600080fd5b600090505b815181101561170157600060066000848481518110151561169957fe5b9060200190602002015173ffffffffffffffffffffffffffffffffffffffff1673ffffffffffffffffffffffffffffffffffffffff16815260200190815260200160002060006101000a81548160ff021916908315150217905550808060010191505061167c565b5050565b600060011515600d60009054906101000a900460ff16151514806117765750600360009054906101000a900473ffffffffffffffffffffffffffffffffffffffff1673ffffffffffffffffffffffffffffffffffffffff163373ffffffffffffffffffffffffffffffffffffffff16145b151561178157600080fd5b81600460003373ffffffffffffffffffffffffffffffffffffffff1673ffffffffffffffffffffffffffffffffffffffff16815260200190815260200160002054101580156117d1575060008210155b801561185c5750600460008473ffffffffffffffffffffffffffffffffffffffff1673ffffffffffffffffffffffffffffffffffffffff1681526020019081526020016000205482600460008673ffffffffffffffffffffffffffffffffffffffff1673ffffffffffffffffffffffffffffffffffffffff1681526020019081526020016000205401115b156119695781600460003373ffffffffffffffffffffffffffffffffffffffff1673ffffffffffffffffffffffffffffffffffffffff1681526020019081526020016000206000828254039250508190555081600460008573ffffffffffffffffffffffffffffffffffffffff1673ffffffffffffffffffffffffffffffffffffffff168152602001908152602001600020600082825401925050819055508273ffffffffffffffffffffffffffffffffffffffff163373ffffffffffffffffffffffffffffffffffffffff167fddf252ad1be2c89b69c2b068fc378daa952ba7f163c4a11628f55a4df523b3ef846040518082815260200191505060405180910390a36001905061196e565b600090505b92915050565b600c5481565b6000600360009054906101000a900473ffffffffffffffffffffffffffffffffffffffff1673ffffffffffffffffffffffffffffffffffffffff163373ffffffffffffffffffffffffffffffffffffffff161415156119d857600080fd5b600090505b8151811015611a625760016006600084848151811015156119fa57fe5b9060200190602002015173ffffffffffffffffffffffffffffffffffffffff1673ffffffffffffffffffffffffffffffffffffffff16815260200190815260200160002060006101000a81548160ff02191690831515021790555080806001019150506119dd565b5050565b6000600560008473ffffffffffffffffffffffffffffffffffffffff1673ffffffffffffffffffffffffffffffffffffffff16815260200190815260200160002060008373ffffffffffffffffffffffffffffffffffffffff1673ffffffffffffffffffffffffffffffffffffffff16815260200190815260200160002054905092915050565b6000600760008373ffffffffffffffffffffffffffffffffffffffff1673ffffffffffffffffffffffffffffffffffffffff168152602001908152602001600020549050919050565b600360009054906101000a900473ffffffffffffffffffffffffffffffffffffffff1673ffffffffffffffffffffffffffffffffffffffff163373ffffffffffffffffffffffffffffffffffffffff16141515611b9257600080fd5b60016000806101000a81548160ff021916908315150217905550565b6000809054906101000a900460ff16815600a165627a7a72305820077fef797e36b1896a8b85855b54680c98e4f1f912219aa6d3e56a1c738231020029a165627a7a72305820a77c471fabb00c4be4e42aef49e4d81e03930f4771aa168e8b639a1f65f2aa3f0029",
  "source": "\npragma solidity ^0.4.0;\n\nimport \"../Gifto.sol\";\n\n\ncontract MultiSigWalletMock is MultiSigWallet {\n    function MultiSigWalletMock(address[] _owners, uint _required) MultiSigWallet(_owners, _required) {}\n      \n    modifier onlyWallet() {\n        _;\n    }\n}\n",
  "sourcePath": "/home/gabriel/audits/gifto/contracts/helpers/MockMultiSigWallet.sol",
  "compiler": {
    "name": "solc",
    "version": "0.4.19+commit.c4cbbb05.Emscripten.clang"
  },
  "schemaVersion": "1.0.1",
  "updatedAt": "2018-02-07T22:25:15.013Z"
}