{
  "contractName": "MultiSigWallet",
  "abi": [
    {
      "constant": true,
      "inputs": [
        {
          "name": "",
          "type": "uint256"
        }
      ],
      "name": "owners",
      "outputs": [
        {
          "name": "",
          "type": "address"
        }
      ],
      "payable": false,
      "stateMutability": "view",
      "type": "function"
    },
    {
      "constant": false,
      "inputs": [
        {
          "name": "owner",
          "type": "address"
        }
      ],
      "name": "removeOwner",
      "outputs": [],
      "payable": false,
      "stateMutability": "nonpayable",
      "type": "function"
    },
    {
      "constant": false,
      "inputs": [
        {
          "name": "transactionId",
          "type": "uint256"
        }
      ],
      "name": "revokeConfirmation",
      "outputs": [],
      "payable": false,
      "stateMutability": "nonpayable",
      "type": "function"
    },
    {
      "constant": true,
      "inputs": [
        {
          "name": "",
          "type": "address"
        }
      ],
      "name": "isOwner",
      "outputs": [
        {
          "name": "",
          "type": "bool"
        }
      ],
      "payable": false,
      "stateMutability": "view",
      "type": "function"
    },
    {
      "constant": true,
      "inputs": [
        {
          "name": "",
          "type": "uint256"
        },
        {
          "name": "",
          "type": "address"
        }
      ],
      "name": "confirmations",
      "outputs": [
        {
          "name": "",
          "type": "bool"
        }
      ],
      "payable": false,
      "stateMutability": "view",
      "type": "function"
    },
    {
      "constant": false,
      "inputs": [],
      "name": "createCoin",
      "outputs": [],
      "payable": false,
      "stateMutability": "nonpayable",
      "type": "function"
    },
    {
      "constant": true,
      "inputs": [
        {
          "name": "pending",
          "type": "bool"
        },
        {
          "name": "executed",
          "type": "bool"
        }
      ],
      "name": "getTransactionCount",
      "outputs": [
        {
          "name": "count",
          "type": "uint256"
        }
      ],
      "payable": false,
      "stateMutability": "view",
      "type": "function"
    },
    {
      "constant": false,
      "inputs": [
        {
          "name": "owner",
          "type": "address"
        }
      ],
      "name": "addOwner",
      "outputs": [],
      "payable": false,
      "stateMutability": "nonpayable",
      "type": "function"
    },
    {
      "constant": true,
      "inputs": [
        {
          "name": "transactionId",
          "type": "uint256"
        }
      ],
      "name": "isConfirmed",
      "outputs": [
        {
          "name": "",
          "type": "bool"
        }
      ],
      "payable": false,
      "stateMutability": "view",
      "type": "function"
    },
    {
      "constant": true,
      "inputs": [
        {
          "name": "transactionId",
          "type": "uint256"
        }
      ],
      "name": "getConfirmationCount",
      "outputs": [
        {
          "name": "count",
          "type": "uint256"
        }
      ],
      "payable": false,
      "stateMutability": "view",
      "type": "function"
    },
    {
      "constant": true,
      "inputs": [
        {
          "name": "",
          "type": "uint256"
        }
      ],
      "name": "transactions",
      "outputs": [
        {
          "name": "destination",
          "type": "address"
        },
        {
          "name": "value",
          "type": "uint256"
        },
        {
          "name": "data",
          "type": "bytes"
        },
        {
          "name": "executed",
          "type": "bool"
        }
      ],
      "payable": false,
      "stateMutability": "view",
      "type": "function"
    },
    {
      "constant": true,
      "inputs": [],
      "name": "getOwners",
      "outputs": [
        {
          "name": "",
          "type": "address[]"
        }
      ],
      "payable": false,
      "stateMutability": "view",
      "type": "function"
    },
    {
      "constant": true,
      "inputs": [
        {
          "name": "from",
          "type": "uint256"
        },
        {
          "name": "to",
          "type": "uint256"
        },
        {
          "name": "pending",
          "type": "bool"
        },
        {
          "name": "executed",
          "type": "bool"
        }
      ],
      "name": "getTransactionIds",
      "outputs": [
        {
          "name": "_transactionIds",
          "type": "uint256[]"
        }
      ],
      "payable": false,
      "stateMutability": "view",
      "type": "function"
    },
    {
      "constant": true,
      "inputs": [
        {
          "name": "transactionId",
          "type": "uint256"
        }
      ],
      "name": "getConfirmations",
      "outputs": [
        {
          "name": "_confirmations",
          "type": "address[]"
        }
      ],
      "payable": false,
      "stateMutability": "view",
      "type": "function"
    },
    {
      "constant": true,
      "inputs": [],
      "name": "transactionCount",
      "outputs": [
        {
          "name": "",
          "type": "uint256"
        }
      ],
      "payable": false,
      "stateMutability": "view",
      "type": "function"
    },
    {
      "constant": false,
      "inputs": [
        {
          "name": "_required",
          "type": "uint256"
        }
      ],
      "name": "changeRequirement",
      "outputs": [],
      "payable": false,
      "stateMutability": "nonpayable",
      "type": "function"
    },
    {
      "constant": false,
      "inputs": [
        {
          "name": "transactionId",
          "type": "uint256"
        }
      ],
      "name": "confirmTransaction",
      "outputs": [],
      "payable": false,
      "stateMutability": "nonpayable",
      "type": "function"
    },
    {
      "constant": false,
      "inputs": [
        {
          "name": "destination",
          "type": "address"
        },
        {
          "name": "value",
          "type": "uint256"
        },
        {
          "name": "data",
          "type": "bytes"
        }
      ],
      "name": "submitTransaction",
      "outputs": [
        {
          "name": "transactionId",
          "type": "uint256"
        }
      ],
      "payable": false,
      "stateMutability": "nonpayable",
      "type": "function"
    },
    {
      "constant": true,
      "inputs": [],
      "name": "MAX_OWNER_COUNT",
      "outputs": [
        {
          "name": "",
          "type": "uint256"
        }
      ],
      "payable": false,
      "stateMutability": "view",
      "type": "function"
    },
    {
      "constant": true,
      "inputs": [],
      "name": "required",
      "outputs": [
        {
          "name": "",
          "type": "uint256"
        }
      ],
      "payable": false,
      "stateMutability": "view",
      "type": "function"
    },
    {
      "constant": false,
      "inputs": [
        {
          "name": "owner",
          "type": "address"
        },
        {
          "name": "newOwner",
          "type": "address"
        }
      ],
      "name": "replaceOwner",
      "outputs": [],
      "payable": false,
      "stateMutability": "nonpayable",
      "type": "function"
    },
    {
      "constant": false,
      "inputs": [
        {
          "name": "transactionId",
          "type": "uint256"
        }
      ],
      "name": "executeTransaction",
      "outputs": [],
      "payable": false,
      "stateMutability": "nonpayable",
      "type": "function"
    },
    {
      "inputs": [
        {
          "name": "_owners",
          "type": "address[]"
        },
        {
          "name": "_required",
          "type": "uint256"
        }
      ],
      "payable": false,
      "stateMutability": "nonpayable",
      "type": "constructor"
    },
    {
      "payable": true,
      "stateMutability": "payable",
      "type": "fallback"
    },
    {
      "anonymous": false,
      "inputs": [
        {
          "indexed": true,
          "name": "sender",
          "type": "address"
        },
        {
          "indexed": true,
          "name": "transactionId",
          "type": "uint256"
        }
      ],
      "name": "Confirmation",
      "type": "event"
    },
    {
      "anonymous": false,
      "inputs": [
        {
          "indexed": true,
          "name": "sender",
          "type": "address"
        },
        {
          "indexed": true,
          "name": "transactionId",
          "type": "uint256"
        }
      ],
      "name": "Revocation",
      "type": "event"
    },
    {
      "anonymous": false,
      "inputs": [
        {
          "indexed": true,
          "name": "transactionId",
          "type": "uint256"
        }
      ],
      "name": "Submission",
      "type": "event"
    },
    {
      "anonymous": false,
      "inputs": [
        {
          "indexed": true,
          "name": "transactionId",
          "type": "uint256"
        }
      ],
      "name": "Execution",
      "type": "event"
    },
    {
      "anonymous": false,
      "inputs": [
        {
          "indexed": true,
          "name": "transactionId",
          "type": "uint256"
        }
      ],
      "name": "ExecutionFailure",
      "type": "event"
    },
    {
      "anonymous": false,
      "inputs": [
        {
          "indexed": true,
          "name": "sender",
          "type": "address"
        },
        {
          "indexed": false,
          "name": "value",
          "type": "uint256"
        }
      ],
      "name": "Deposit",
      "type": "event"
    },
    {
      "anonymous": false,
      "inputs": [
        {
          "indexed": true,
          "name": "owner",
          "type": "address"
        }
      ],
      "name": "OwnerAddition",
      "type": "event"
    },
    {
      "anonymous": false,
      "inputs": [
        {
          "indexed": true,
          "name": "owner",
          "type": "address"
        }
      ],
      "name": "OwnerRemoval",
      "type": "event"
    },
    {
      "anonymous": false,
      "inputs": [
        {
          "indexed": false,
          "name": "required",
          "type": "uint256"
        }
      ],
      "name": "RequirementChange",
      "type": "event"
    },
    {
      "anonymous": false,
      "inputs": [
        {
          "indexed": false,
          "name": "coin",
          "type": "address"
        }
      ],
      "name": "CoinCreation",
      "type": "event"
    }
  ],
  "bytecode": "0x60606040526001600660006101000a81548160ff02191690831515021790555034156200002b57600080fd5b6040516200431a3803806200431a83398101604052808051820191906020018051906020019091905050600082518260328211806200006957508181115b80620000755750600081145b80620000815750600082145b156200008c57600080fd5b600092505b8451831015620001c357600260008685815181101515620000ae57fe5b9060200190602002015173ffffffffffffffffffffffffffffffffffffffff1673ffffffffffffffffffffffffffffffffffffffff16815260200190815260200160002060009054906101000a900460ff16806200013a5750600085848151811015156200011857fe5b9060200190602002015173ffffffffffffffffffffffffffffffffffffffff16145b156200014557600080fd5b60016002600087868151811015156200015a57fe5b9060200190602002015173ffffffffffffffffffffffffffffffffffffffff1673ffffffffffffffffffffffffffffffffffffffff16815260200190815260200160002060006101000a81548160ff021916908315150217905550828060010193505062000091565b8460039080519060200190620001db929190620001ee565b50836004819055505050505050620002c3565b8280548282559060005260206000209081019282156200026a579160200282015b82811115620002695782518260006101000a81548173ffffffffffffffffffffffffffffffffffffffff021916908373ffffffffffffffffffffffffffffffffffffffff160217905550916020019190600101906200020f565b5b5090506200027991906200027d565b5090565b620002c091905b80821115620002bc57600081816101000a81549073ffffffffffffffffffffffffffffffffffffffff02191690555060010162000284565b5090565b90565b61404780620002d36000396000f3006060604052600436106200013f576000357c0100000000000000000000000000000000000000000000000000000000900463ffffffff168063025e7c27146200019a578063173825d9146200020057806320ea8d86146200023c5780632f54bf6e14620002625780633411c81c14620002b65780633d03ec29146200031357806354741525146200032b5780637065cb481462000372578063784547a714620003ae5780638b51d13f14620003ec5780639ace38c21462000426578063a0e67e2b146200052b578063a8abe69a146200059a578063b5dc40c31462000636578063b77bf60014620006b3578063ba51a6df14620006df578063c01a8c841462000705578063c6427474146200072b578063d74f8edd14620007c7578063dc8452cd14620007f3578063e20056e6146200081f578063ee22610b146200087a575b600034111562000198573373ffffffffffffffffffffffffffffffffffffffff167fe1fffcc4923d04b559f4d29a8bfc6cda04eb5b0d3c460751c2402c5c5cc9109c346040518082815260200191505060405180910390a25b005b3415620001a657600080fd5b620001be6004808035906020019091905050620008a0565b604051808273ffffffffffffffffffffffffffffffffffffffff1673ffffffffffffffffffffffffffffffffffffffff16815260200191505060405180910390f35b34156200020c57600080fd5b6200023a600480803573ffffffffffffffffffffffffffffffffffffffff16906020019091905050620008e0565b005b34156200024857600080fd5b62000260600480803590602001909190505062000b8a565b005b34156200026e57600080fd5b6200029c600480803573ffffffffffffffffffffffffffffffffffffffff1690602001909190505062000d33565b604051808215151515815260200191505060405180910390f35b3415620002c257600080fd5b620002f9600480803590602001909190803573ffffffffffffffffffffffffffffffffffffffff1690602001909190505062000d53565b604051808215151515815260200191505060405180910390f35b34156200031f57600080fd5b6200032962000d82565b005b34156200033757600080fd5b6200035c60048080351515906020019091908035151590602001909190505062000e80565b6040518082815260200191505060405180910390f35b34156200037e57600080fd5b620003ac600480803573ffffffffffffffffffffffffffffffffffffffff1690602001909190505062000f18565b005b3415620003ba57600080fd5b620003d2600480803590602001909190505062001117565b604051808215151515815260200191505060405180910390f35b3415620003f857600080fd5b62000410600480803590602001909190505062001203565b6040518082815260200191505060405180910390f35b34156200043257600080fd5b6200044a6004808035906020019091905050620012d3565b604051808573ffffffffffffffffffffffffffffffffffffffff1673ffffffffffffffffffffffffffffffffffffffff1681526020018481526020018060200183151515158152602001828103825284818154600181600116156101000203166002900481526020019150805460018160011615610100020316600290048015620005195780601f10620004ed5761010080835404028352916020019162000519565b820191906000526020600020905b815481529060010190602001808311620004fb57829003601f168201915b50509550505050505060405180910390f35b34156200053757600080fd5b620005416200132f565b6040518080602001828103825283818151815260200191508051906020019060200280838360005b838110156200058657808201518184015260208101905062000569565b505050509050019250505060405180910390f35b3415620005a657600080fd5b620005dd600480803590602001909190803590602001909190803515159060200190919080351515906020019091905050620013c7565b6040518080602001828103825283818151815260200191508051906020019060200280838360005b838110156200062257808201518184015260208101905062000605565b505050509050019250505060405180910390f35b34156200064257600080fd5b6200065a600480803590602001909190505062001534565b6040518080602001828103825283818151815260200191508051906020019060200280838360005b838110156200069f57808201518184015260208101905062000682565b505050509050019250505060405180910390f35b3415620006bf57600080fd5b620006c96200176e565b6040518082815260200191505060405180910390f35b3415620006eb57600080fd5b62000703600480803590602001909190505062001774565b005b34156200071157600080fd5b6200072960048080359060200190919050506200182b565b005b34156200073757600080fd5b620007b1600480803573ffffffffffffffffffffffffffffffffffffffff1690602001909190803590602001909190803590602001908201803590602001908080601f0160208091040260200160405190810160405280939291908181526020018383808284378201915050505050509190505062001a09565b6040518082815260200191505060405180910390f35b3415620007d357600080fd5b620007dd62001a2c565b6040518082815260200191505060405180910390f35b3415620007ff57600080fd5b6200080962001a31565b6040518082815260200191505060405180910390f35b34156200082b57600080fd5b62000878600480803573ffffffffffffffffffffffffffffffffffffffff1690602001909190803573ffffffffffffffffffffffffffffffffffffffff1690602001909190505062001a37565b005b34156200088657600080fd5b6200089e600480803590602001909190505062001d55565b005b600381815481101515620008b057fe5b90600052602060002090016000915054906101000a900473ffffffffffffffffffffffffffffffffffffffff1681565b60003073ffffffffffffffffffffffffffffffffffffffff163373ffffffffffffffffffffffffffffffffffffffff161415156200091d57600080fd5b81600260008273ffffffffffffffffffffffffffffffffffffffff1673ffffffffffffffffffffffffffffffffffffffff16815260200190815260200160002060009054906101000a900460ff1615156200097757600080fd5b6000600260008573ffffffffffffffffffffffffffffffffffffffff1673ffffffffffffffffffffffffffffffffffffffff16815260200190815260200160002060006101000a81548160ff021916908315150217905550600091505b60016003805490500382101562000b06578273ffffffffffffffffffffffffffffffffffffffff1660038381548110151562000a0c57fe5b906000526020600020900160009054906101000a900473ffffffffffffffffffffffffffffffffffffffff1673ffffffffffffffffffffffffffffffffffffffff16141562000af857600360016003805490500381548110151562000a6d57fe5b906000526020600020900160009054906101000a900473ffffffffffffffffffffffffffffffffffffffff1660038381548110151562000aa957fe5b906000526020600020900160006101000a81548173ffffffffffffffffffffffffffffffffffffffff021916908373ffffffffffffffffffffffffffffffffffffffff16021790555062000b06565b8180600101925050620009d4565b600160038181805490500391508162000b2091906200206c565b50600380549050600454111562000b425762000b4160038054905062001774565b5b8273ffffffffffffffffffffffffffffffffffffffff167f8001553a916ef2f495d26a907cc54d96ed840d7bda71e73194bf5a9df7a76b9060405160405180910390a2505050565b33600260008273ffffffffffffffffffffffffffffffffffffffff1673ffffffffffffffffffffffffffffffffffffffff16815260200190815260200160002060009054906101000a900460ff16151562000be457600080fd5b81336001600083815260200190815260200160002060008273ffffffffffffffffffffffffffffffffffffffff1673ffffffffffffffffffffffffffffffffffffffff16815260200190815260200160002060009054906101000a900460ff16151562000c5057600080fd5b8360008082815260200190815260200160002060030160009054906101000a900460ff161562000c7f57600080fd5b60006001600087815260200190815260200160002060003373ffffffffffffffffffffffffffffffffffffffff1673ffffffffffffffffffffffffffffffffffffffff16815260200190815260200160002060006101000a81548160ff021916908315150217905550843373ffffffffffffffffffffffffffffffffffffffff167ff6a317157440607f36269043eb55f1287a5a19ba2216afeab88cd46cbcfb88e960405160405180910390a35050505050565b60026020528060005260406000206000915054906101000a900460ff1681565b60016020528160005260406000206020528060005260406000206000915091509054906101000a900460ff1681565b3073ffffffffffffffffffffffffffffffffffffffff163373ffffffffffffffffffffffffffffffffffffffff1614151562000dbd57600080fd5b60011515600660009054906101000a900460ff16151514151562000de057600080fd5b7faae68a8a885a02fa07c5e1431d58b37a38223b24d17b8435a1942dd778bd6bef62000e0b6200209b565b604051809103906000f080151562000e2257600080fd5b604051808273ffffffffffffffffffffffffffffffffffffffff1673ffffffffffffffffffffffffffffffffffffffff16815260200191505060405180910390a16000600660006101000a81548160ff021916908315150217905550565b600080600090505b60055481101562000f115783801562000ec1575060008082815260200190815260200160002060030160009054906101000a900460ff16155b8062000ef6575082801562000ef5575060008082815260200190815260200160002060030160009054906101000a900460ff165b5b1562000f03576001820191505b808060010191505062000e88565b5092915050565b3073ffffffffffffffffffffffffffffffffffffffff163373ffffffffffffffffffffffffffffffffffffffff1614151562000f5357600080fd5b80600260008273ffffffffffffffffffffffffffffffffffffffff1673ffffffffffffffffffffffffffffffffffffffff16815260200190815260200160002060009054906101000a900460ff161562000fac57600080fd5b8160008173ffffffffffffffffffffffffffffffffffffffff16141562000fd257600080fd5b600160038054905001600454603282118062000fed57508181115b8062000ff95750600081145b80620010055750600082145b156200101057600080fd5b6001600260008773ffffffffffffffffffffffffffffffffffffffff1673ffffffffffffffffffffffffffffffffffffffff16815260200190815260200160002060006101000a81548160ff021916908315150217905550600380548060010182816200107e9190620020ac565b9160005260206000209001600087909190916101000a81548173ffffffffffffffffffffffffffffffffffffffff021916908373ffffffffffffffffffffffffffffffffffffffff160217905550508473ffffffffffffffffffffffffffffffffffffffff167ff39e6e1eb0edcf53c221607b54b00cd28f3196fed0a24994dc308b8f611b682d60405160405180910390a25050505050565b6000806000809150600090505b600380549050811015620011fb576001600085815260200190815260200160002060006003838154811015156200115757fe5b906000526020600020900160009054906101000a900473ffffffffffffffffffffffffffffffffffffffff1673ffffffffffffffffffffffffffffffffffffffff1673ffffffffffffffffffffffffffffffffffffffff16815260200190815260200160002060009054906101000a900460ff1615620011d8576001820191505b600454821415620011ed5760019250620011fc565b808060010191505062001124565b5b5050919050565b600080600090505b600380549050811015620012cd576001600084815260200190815260200160002060006003838154811015156200123e57fe5b906000526020600020900160009054906101000a900473ffffffffffffffffffffffffffffffffffffffff1673ffffffffffffffffffffffffffffffffffffffff1673ffffffffffffffffffffffffffffffffffffffff16815260200190815260200160002060009054906101000a900460ff1615620012bf576001820191505b80806001019150506200120b565b50919050565b60006020528060005260406000206000915090508060000160009054906101000a900473ffffffffffffffffffffffffffffffffffffffff169080600101549080600201908060030160009054906101000a900460ff16905084565b62001339620020db565b6003805480602002602001604051908101604052809291908181526020018280548015620013bd57602002820191906000526020600020905b8160009054906101000a900473ffffffffffffffffffffffffffffffffffffffff1673ffffffffffffffffffffffffffffffffffffffff168152602001906001019080831162001372575b5050505050905090565b620013d1620020ef565b620013db620020ef565b600080600554604051805910620013ef5750595b9080825280602002602001820160405250925060009150600090505b600554811015620014b25785801562001444575060008082815260200190815260200160002060030160009054906101000a900460ff16155b8062001479575084801562001478575060008082815260200190815260200160002060030160009054906101000a900460ff165b5b15620014a4578083838151811015156200148f57fe5b90602001906020020181815250506001820191505b80806001019150506200140b565b878703604051805910620014c35750595b908082528060200260200182016040525093508790505b8681101562001529578281815181101515620014f257fe5b90602001906020020151848983038151811015156200150d57fe5b90602001906020020181815250508080600101915050620014da565b505050949350505050565b6200153e620020db565b62001548620020db565b6000806003805490506040518059106200155f5750595b9080825280602002602001820160405250925060009150600090505b600380549050811015620016c457600160008681526020019081526020016000206000600383815481101515620015ae57fe5b906000526020600020900160009054906101000a900473ffffffffffffffffffffffffffffffffffffffff1673ffffffffffffffffffffffffffffffffffffffff1673ffffffffffffffffffffffffffffffffffffffff16815260200190815260200160002060009054906101000a900460ff1615620016b6576003818154811015156200163857fe5b906000526020600020900160009054906101000a900473ffffffffffffffffffffffffffffffffffffffff1683838151811015156200167357fe5b9060200190602002019073ffffffffffffffffffffffffffffffffffffffff16908173ffffffffffffffffffffffffffffffffffffffff16815250506001820191505b80806001019150506200157b565b81604051805910620016d35750595b90808252806020026020018201604052509350600090505b81811015620017665782818151811015156200170357fe5b9060200190602002015184828151811015156200171c57fe5b9060200190602002019073ffffffffffffffffffffffffffffffffffffffff16908173ffffffffffffffffffffffffffffffffffffffff16815250508080600101915050620016eb565b505050919050565b60055481565b3073ffffffffffffffffffffffffffffffffffffffff163373ffffffffffffffffffffffffffffffffffffffff16141515620017af57600080fd5b600380549050816032821180620017c557508181115b80620017d15750600081145b80620017dd5750600082145b15620017e857600080fd5b826004819055507fa3f1ee9126a074d9326c682f561767f710e927faa811f7a99829d49dc421797a836040518082815260200191505060405180910390a1505050565b33600260008273ffffffffffffffffffffffffffffffffffffffff1673ffffffffffffffffffffffffffffffffffffffff16815260200190815260200160002060009054906101000a900460ff1615156200188557600080fd5b81600080600083815260200190815260200160002060000160009054906101000a900473ffffffffffffffffffffffffffffffffffffffff1673ffffffffffffffffffffffffffffffffffffffff161415620018e057600080fd5b82336001600083815260200190815260200160002060008273ffffffffffffffffffffffffffffffffffffffff1673ffffffffffffffffffffffffffffffffffffffff16815260200190815260200160002060009054906101000a900460ff16156200194b57600080fd5b600180600087815260200190815260200160002060003373ffffffffffffffffffffffffffffffffffffffff1673ffffffffffffffffffffffffffffffffffffffff16815260200190815260200160002060006101000a81548160ff021916908315150217905550843373ffffffffffffffffffffffffffffffffffffffff167f4a504a94899432a9846e1aa406dceb1bcfd538bb839071d49d1e5e23f5be30ef60405160405180910390a362001a028562001d55565b5050505050565b600062001a1884848462001f19565b905062001a25816200182b565b9392505050565b603281565b60045481565b60003073ffffffffffffffffffffffffffffffffffffffff163373ffffffffffffffffffffffffffffffffffffffff1614151562001a7457600080fd5b82600260008273ffffffffffffffffffffffffffffffffffffffff1673ffffffffffffffffffffffffffffffffffffffff16815260200190815260200160002060009054906101000a900460ff16151562001ace57600080fd5b82600260008273ffffffffffffffffffffffffffffffffffffffff1673ffffffffffffffffffffffffffffffffffffffff16815260200190815260200160002060009054906101000a900460ff161562001b2757600080fd5b600092505b60038054905083101562001c18578473ffffffffffffffffffffffffffffffffffffffff1660038481548110151562001b6157fe5b906000526020600020900160009054906101000a900473ffffffffffffffffffffffffffffffffffffffff1673ffffffffffffffffffffffffffffffffffffffff16141562001c0a578360038481548110151562001bbb57fe5b906000526020600020900160006101000a81548173ffffffffffffffffffffffffffffffffffffffff021916908373ffffffffffffffffffffffffffffffffffffffff16021790555062001c18565b828060010193505062001b2c565b6000600260008773ffffffffffffffffffffffffffffffffffffffff1673ffffffffffffffffffffffffffffffffffffffff16815260200190815260200160002060006101000a81548160ff0219169083151502179055506001600260008673ffffffffffffffffffffffffffffffffffffffff1673ffffffffffffffffffffffffffffffffffffffff16815260200190815260200160002060006101000a81548160ff0219169083151502179055508473ffffffffffffffffffffffffffffffffffffffff167f8001553a916ef2f495d26a907cc54d96ed840d7bda71e73194bf5a9df7a76b9060405160405180910390a28373ffffffffffffffffffffffffffffffffffffffff167ff39e6e1eb0edcf53c221607b54b00cd28f3196fed0a24994dc308b8f611b682d60405160405180910390a25050505050565b60008160008082815260200190815260200160002060030160009054906101000a900460ff161562001d8657600080fd5b62001d918362001117565b1562001f1457600080848152602001908152602001600020915060018260030160006101000a81548160ff0219169083151502179055508160000160009054906101000a900473ffffffffffffffffffffffffffffffffffffffff1673ffffffffffffffffffffffffffffffffffffffff16826001015483600201604051808280546001816001161561010002031660029004801562001e755780601f1062001e495761010080835404028352916020019162001e75565b820191906000526020600020905b81548152906001019060200180831162001e5757829003601f168201915b505091505060006040518083038185876187965a03f1925050501562001ec857827f33e13ecb54c3076d8e8bb8c2881800a4d972b792045ffae98fdf46df365fed7560405160405180910390a262001f13565b827f526441bb6c1aba3c9a4a6ca1d6545da9c2333c8c48343ef398eb858d72b7923660405160405180910390a260008260030160006101000a81548160ff0219169083151502179055505b5b505050565b60008360008173ffffffffffffffffffffffffffffffffffffffff16141562001f4157600080fd5b60055491506080604051908101604052808673ffffffffffffffffffffffffffffffffffffffff1681526020018581526020018481526020016000151581525060008084815260200190815260200160002060008201518160000160006101000a81548173ffffffffffffffffffffffffffffffffffffffff021916908373ffffffffffffffffffffffffffffffffffffffff1602179055506020820151816001015560408201518160020190805190602001906200200292919062002103565b5060608201518160030160006101000a81548160ff0219169083151502179055509050506001600560008282540192505081905550817fc0ba8fe4b176c1714197d43b9cc6bcf797a4a7461c5fe8d0ef6e184ae7601e5160405160405180910390a2509392505050565b81548183558181151162002096578183600052602060002091820191016200209591906200218a565b5b505050565b604051611e6980620021b383390190565b815481835581811511620020d657818360005260206000209182019101620020d591906200218a565b5b505050565b602060405190810160405280600081525090565b602060405190810160405280600081525090565b828054600181600116156101000203166002900490600052602060002090601f016020900481019282601f106200214657805160ff191683800117855562002177565b8280016001018555821562002177579182015b828111156200217657825182559160200191906001019062002159565b5b5090506200218691906200218a565b5090565b620021af91905b80821115620021ab57600081600090555060010162002191565b5090565b905600606060405260016000806101000a81548160ff021916908315150217905550655af3107a40006001556319a14780600255600a6008556064600854600154028115156200004857fe5b04600955670429d069189e0000600a5568015af1d78b58c40000600b556000600c556000600d60006101000a81548160ff02191690831515021790555034156200009157600080fd5b33600360006101000a81548173ffffffffffffffffffffffffffffffffffffffff021916908373ffffffffffffffffffffffffffffffffffffffff160217905550620000f3600254620001d56401000000000262001474176401000000009004565b60015460046000600360009054906101000a900473ffffffffffffffffffffffffffffffffffffffff1673ffffffffffffffffffffffffffffffffffffffff1673ffffffffffffffffffffffffffffffffffffffff16815260200190815260200160002081905550600360009054906101000a900473ffffffffffffffffffffffffffffffffffffffff1673ffffffffffffffffffffffffffffffffffffffff1660007fddf252ad1be2c89b69c2b068fc378daa952ba7f163c4a11628f55a4df523b3ef6001546040518082815260200191505060405180910390a36200026d565b600360009054906101000a900473ffffffffffffffffffffffffffffffffffffffff1673ffffffffffffffffffffffffffffffffffffffff163373ffffffffffffffffffffffffffffffffffffffff161415156200023257600080fd5b6000811115156200024257600080fd5b806002819055506002546b204fce5e3e250261100000008115156200026357fe5b04600b8190555050565b611bec806200027d6000396000f30060606040526004361061018b576000357c0100000000000000000000000000000000000000000000000000000000900463ffffffff1680630188fdef1461019557806306fdde03146101b8578063095ea7b31461024657806318160ddd146102a057806323526a34146102c957806323b872dd146102de5780632fb1746d14610357578063313ce5671461036c5780633c2d6447146103955780633c50afe1146103b85780633ccfd60b146103e15780633eaaf86b1461040e578063430558c214610437578063501e3a2c1461044157806354840c6e1461046a57806363ae8d6c146104975780636b342eb8146104ba57806370a08231146104e357806378f2144b146105305780637fd2304f146105595780638da5cb5b1461058257806395d89b41146105d75780639b1fe0d4146106655780639fc39549146106b6578063a9059cbb14610710578063b5f7f6361461076a578063bfb9f08814610793578063dd62ed3e146107ed578063e1254fba14610859578063e98cf987146108a6578063f9323a32146108bb575b6101936108e8565b005b34156101a057600080fd5b6101b66004808035906020019091905050610c73565b005b34156101c357600080fd5b6101cb610cd9565b6040518080602001828103825283818151815260200191508051906020019080838360005b8381101561020b5780820151818401526020810190506101f0565b50505050905090810190601f1680156102385780820380516001836020036101000a031916815260200191505b509250505060405180910390f35b341561025157600080fd5b610286600480803573ffffffffffffffffffffffffffffffffffffffff16906020019091908035906020019091905050610d12565b604051808215151515815260200191505060405180910390f35b34156102ab57600080fd5b6102b3610e7e565b6040518082815260200191505060405180910390f35b34156102d457600080fd5b6102dc610e88565b005b34156102e957600080fd5b61033d600480803573ffffffffffffffffffffffffffffffffffffffff1690602001909190803573ffffffffffffffffffffffffffffffffffffffff16906020019091908035906020019091905050610f00565b604051808215151515815260200191505060405180910390f35b341561036257600080fd5b61036a611281565b005b341561037757600080fd5b61037f6112fa565b6040518082815260200191505060405180910390f35b34156103a057600080fd5b6103b660048080359060200190919050506112ff565b005b34156103c357600080fd5b6103cb61137e565b6040518082815260200191505060405180910390f35b34156103ec57600080fd5b6103f4611384565b604051808215151515815260200191505060405180910390f35b341561041957600080fd5b610421611455565b6040518082815260200191505060405180910390f35b61043f6108e8565b005b341561044c57600080fd5b61045461145b565b6040518082815260200191505060405180910390f35b341561047557600080fd5b61047d611461565b604051808215151515815260200191505060405180910390f35b34156104a257600080fd5b6104b86004808035906020019091905050611474565b005b34156104c557600080fd5b6104cd611509565b6040518082815260200191505060405180910390f35b34156104ee57600080fd5b61051a600480803573ffffffffffffffffffffffffffffffffffffffff1690602001909190505061150f565b6040518082815260200191505060405180910390f35b341561053b57600080fd5b610543611558565b6040518082815260200191505060405180910390f35b341561056457600080fd5b61056c61155e565b6040518082815260200191505060405180910390f35b341561058d57600080fd5b610595611564565b604051808273ffffffffffffffffffffffffffffffffffffffff1673ffffffffffffffffffffffffffffffffffffffff16815260200191505060405180910390f35b34156105e257600080fd5b6105ea61158a565b6040518080602001828103825283818151815260200191508051906020019080838360005b8381101561062a57808201518184015260208101905061060f565b50505050905090810190601f1680156106575780820380516001836020036101000a031916815260200191505b509250505060405180910390f35b341561067057600080fd5b61069c600480803573ffffffffffffffffffffffffffffffffffffffff169060200190919050506115c3565b604051808215151515815260200191505060405180910390f35b34156106c157600080fd5b61070e600480803590602001908201803590602001908080602002602001604051908101604052809392919081815260200183836020028082843782019150505050505091905050611619565b005b341561071b57600080fd5b610750600480803573ffffffffffffffffffffffffffffffffffffffff16906020019091908035906020019091905050611705565b604051808215151515815260200191505060405180910390f35b341561077557600080fd5b61077d611974565b6040518082815260200191505060405180910390f35b341561079e57600080fd5b6107eb60048080359060200190820180359060200190808060200260200160405190810160405280939291908181526020018383602002808284378201915050505050509190505061197a565b005b34156107f857600080fd5b610843600480803573ffffffffffffffffffffffffffffffffffffffff1690602001909190803573ffffffffffffffffffffffffffffffffffffffff16906020019091905050611a66565b6040518082815260200191505060405180910390f35b341561086457600080fd5b610890600480803573ffffffffffffffffffffffffffffffffffffffff16906020019091905050611aed565b6040518082815260200191505060405180910390f35b34156108b157600080fd5b6108b9611b36565b005b34156108c657600080fd5b6108ce611bae565b604051808215151515815260200191505060405180910390f35b60008060009054906101000a900460ff16151561090457600080fd5b600a5434101580156109595750600b5434600760003373ffffffffffffffffffffffffffffffffffffffff1673ffffffffffffffffffffffffffffffffffffffff168152602001908152602001600020540111155b151561096457600080fd5b600660003373ffffffffffffffffffffffffffffffffffffffff1673ffffffffffffffffffffffffffffffffffffffff16815260200190815260200160002060009054906101000a900460ff1615156109bc57600080fd5b670de0b6b3a764000060025434028115156109d357fe5b0490508060046000600360009054906101000a900473ffffffffffffffffffffffffffffffffffffffff1673ffffffffffffffffffffffffffffffffffffffff1673ffffffffffffffffffffffffffffffffffffffff1681526020019081526020016000205410151515610a4657600080fd5b8060046000600360009054906101000a900473ffffffffffffffffffffffffffffffffffffffff1673ffffffffffffffffffffffffffffffffffffffff1673ffffffffffffffffffffffffffffffffffffffff1681526020019081526020016000206000828254039250508190555080600460003373ffffffffffffffffffffffffffffffffffffffff1673ffffffffffffffffffffffffffffffffffffffff1681526020019081526020016000206000828254019250508190555034600760003373ffffffffffffffffffffffffffffffffffffffff1673ffffffffffffffffffffffffffffffffffffffff1681526020019081526020016000206000828254019250508190555080600c60008282540192505081905550600954600c54101515610b875760008060006101000a81548160ff0219169083151502179055505b3373ffffffffffffffffffffffffffffffffffffffff16600360009054906101000a900473ffffffffffffffffffffffffffffffffffffffff1673ffffffffffffffffffffffffffffffffffffffff167fddf252ad1be2c89b69c2b068fc378daa952ba7f163c4a11628f55a4df523b3ef836040518082815260200191505060405180910390a3600360009054906101000a900473ffffffffffffffffffffffffffffffffffffffff1673ffffffffffffffffffffffffffffffffffffffff166108fc349081150290604051600060405180830381858888f193505050501515610c7057600080fd5b50565b600360009054906101000a900473ffffffffffffffffffffffffffffffffffffffff1673ffffffffffffffffffffffffffffffffffffffff163373ffffffffffffffffffffffffffffffffffffffff16141515610ccf57600080fd5b80600b8190555050565b6040805190810160405280600581526020017f476966746f00000000000000000000000000000000000000000000000000000081525081565b600060011515600d60009054906101000a900460ff1615151480610d835750600360009054906101000a900473ffffffffffffffffffffffffffffffffffffffff1673ffffffffffffffffffffffffffffffffffffffff163373ffffffffffffffffffffffffffffffffffffffff16145b1515610d8e57600080fd5b81600560003373ffffffffffffffffffffffffffffffffffffffff1673ffffffffffffffffffffffffffffffffffffffff16815260200190815260200160002060008573ffffffffffffffffffffffffffffffffffffffff1673ffffffffffffffffffffffffffffffffffffffff168152602001908152602001600020819055508273ffffffffffffffffffffffffffffffffffffffff163373ffffffffffffffffffffffffffffffffffffffff167f8c5be1e5ebec7d5bd14f71427d1e84f3dd0314c0f7b2291e5b200ac8c7c3b925846040518082815260200191505060405180910390a36001905092915050565b6000600154905090565b600360009054906101000a900473ffffffffffffffffffffffffffffffffffffffff1673ffffffffffffffffffffffffffffffffffffffff163373ffffffffffffffffffffffffffffffffffffffff16141515610ee457600080fd5b60008060006101000a81548160ff021916908315150217905550565b600060011515600d60009054906101000a900460ff1615151480610f715750600360009054906101000a900473ffffffffffffffffffffffffffffffffffffffff1673ffffffffffffffffffffffffffffffffffffffff163373ffffffffffffffffffffffffffffffffffffffff16145b1515610f7c57600080fd5b81600460008673ffffffffffffffffffffffffffffffffffffffff1673ffffffffffffffffffffffffffffffffffffffff1681526020019081526020016000205410158015611047575081600560008673ffffffffffffffffffffffffffffffffffffffff1673ffffffffffffffffffffffffffffffffffffffff16815260200190815260200160002060003373ffffffffffffffffffffffffffffffffffffffff1673ffffffffffffffffffffffffffffffffffffffff1681526020019081526020016000205410155b80156110535750600082115b80156110de5750600460008473ffffffffffffffffffffffffffffffffffffffff1673ffffffffffffffffffffffffffffffffffffffff1681526020019081526020016000205482600460008673ffffffffffffffffffffffffffffffffffffffff1673ffffffffffffffffffffffffffffffffffffffff1681526020019081526020016000205401115b156112755781600460008673ffffffffffffffffffffffffffffffffffffffff1673ffffffffffffffffffffffffffffffffffffffff1681526020019081526020016000206000828254039250508190555081600560008673ffffffffffffffffffffffffffffffffffffffff1673ffffffffffffffffffffffffffffffffffffffff16815260200190815260200160002060003373ffffffffffffffffffffffffffffffffffffffff1673ffffffffffffffffffffffffffffffffffffffff1681526020019081526020016000206000828254039250508190555081600460008573ffffffffffffffffffffffffffffffffffffffff1673ffffffffffffffffffffffffffffffffffffffff168152602001908152602001600020600082825401925050819055508273ffffffffffffffffffffffffffffffffffffffff168473ffffffffffffffffffffffffffffffffffffffff167fddf252ad1be2c89b69c2b068fc378daa952ba7f163c4a11628f55a4df523b3ef846040518082815260200191505060405180910390a36001905061127a565b600090505b9392505050565b600360009054906101000a900473ffffffffffffffffffffffffffffffffffffffff1673ffffffffffffffffffffffffffffffffffffffff163373ffffffffffffffffffffffffffffffffffffffff161415156112dd57600080fd5b6001600d60006101000a81548160ff021916908315150217905550565b600581565b600360009054906101000a900473ffffffffffffffffffffffffffffffffffffffff1673ffffffffffffffffffffffffffffffffffffffff163373ffffffffffffffffffffffffffffffffffffffff1614151561135b57600080fd5b8060088190555060646008546001540281151561137457fe5b0460098190555050565b60095481565b6000600360009054906101000a900473ffffffffffffffffffffffffffffffffffffffff1673ffffffffffffffffffffffffffffffffffffffff163373ffffffffffffffffffffffffffffffffffffffff161415156113e257600080fd5b600360009054906101000a900473ffffffffffffffffffffffffffffffffffffffff1673ffffffffffffffffffffffffffffffffffffffff166108fc3073ffffffffffffffffffffffffffffffffffffffff16319081150290604051600060405180830381858888f19350505050905090565b60015481565b60085481565b600d60009054906101000a900460ff1681565b600360009054906101000a900473ffffffffffffffffffffffffffffffffffffffff1673ffffffffffffffffffffffffffffffffffffffff163373ffffffffffffffffffffffffffffffffffffffff161415156114d057600080fd5b6000811115156114df57600080fd5b806002819055506002546b204fce5e3e250261100000008115156114ff57fe5b04600b8190555050565b600a5481565b6000600460008373ffffffffffffffffffffffffffffffffffffffff1673ffffffffffffffffffffffffffffffffffffffff168152602001908152602001600020549050919050565b60025481565b600b5481565b600360009054906101000a900473ffffffffffffffffffffffffffffffffffffffff1681565b6040805190810160405280600381526020017f47544f000000000000000000000000000000000000000000000000000000000081525081565b6000600660008373ffffffffffffffffffffffffffffffffffffffff1673ffffffffffffffffffffffffffffffffffffffff16815260200190815260200160002060009054906101000a900460ff169050919050565b6000600360009054906101000a900473ffffffffffffffffffffffffffffffffffffffff1673ffffffffffffffffffffffffffffffffffffffff163373ffffffffffffffffffffffffffffffffffffffff1614151561167757600080fd5b600090505b815181101561170157600060066000848481518110151561169957fe5b9060200190602002015173ffffffffffffffffffffffffffffffffffffffff1673ffffffffffffffffffffffffffffffffffffffff16815260200190815260200160002060006101000a81548160ff021916908315150217905550808060010191505061167c565b5050565b600060011515600d60009054906101000a900460ff16151514806117765750600360009054906101000a900473ffffffffffffffffffffffffffffffffffffffff1673ffffffffffffffffffffffffffffffffffffffff163373ffffffffffffffffffffffffffffffffffffffff16145b151561178157600080fd5b81600460003373ffffffffffffffffffffffffffffffffffffffff1673ffffffffffffffffffffffffffffffffffffffff16815260200190815260200160002054101580156117d1575060008210155b801561185c5750600460008473ffffffffffffffffffffffffffffffffffffffff1673ffffffffffffffffffffffffffffffffffffffff1681526020019081526020016000205482600460008673ffffffffffffffffffffffffffffffffffffffff1673ffffffffffffffffffffffffffffffffffffffff1681526020019081526020016000205401115b156119695781600460003373ffffffffffffffffffffffffffffffffffffffff1673ffffffffffffffffffffffffffffffffffffffff1681526020019081526020016000206000828254039250508190555081600460008573ffffffffffffffffffffffffffffffffffffffff1673ffffffffffffffffffffffffffffffffffffffff168152602001908152602001600020600082825401925050819055508273ffffffffffffffffffffffffffffffffffffffff163373ffffffffffffffffffffffffffffffffffffffff167fddf252ad1be2c89b69c2b068fc378daa952ba7f163c4a11628f55a4df523b3ef846040518082815260200191505060405180910390a36001905061196e565b600090505b92915050565b600c5481565b6000600360009054906101000a900473ffffffffffffffffffffffffffffffffffffffff1673ffffffffffffffffffffffffffffffffffffffff163373ffffffffffffffffffffffffffffffffffffffff161415156119d857600080fd5b600090505b8151811015611a625760016006600084848151811015156119fa57fe5b9060200190602002015173ffffffffffffffffffffffffffffffffffffffff1673ffffffffffffffffffffffffffffffffffffffff16815260200190815260200160002060006101000a81548160ff02191690831515021790555080806001019150506119dd565b5050565b6000600560008473ffffffffffffffffffffffffffffffffffffffff1673ffffffffffffffffffffffffffffffffffffffff16815260200190815260200160002060008373ffffffffffffffffffffffffffffffffffffffff1673ffffffffffffffffffffffffffffffffffffffff16815260200190815260200160002054905092915050565b6000600760008373ffffffffffffffffffffffffffffffffffffffff1673ffffffffffffffffffffffffffffffffffffffff168152602001908152602001600020549050919050565b600360009054906101000a900473ffffffffffffffffffffffffffffffffffffffff1673ffffffffffffffffffffffffffffffffffffffff163373ffffffffffffffffffffffffffffffffffffffff16141515611b9257600080fd5b60016000806101000a81548160ff021916908315150217905550565b6000809054906101000a900460ff16815600a165627a7a72305820077fef797e36b1896a8b85855b54680c98e4f1f912219aa6d3e56a1c738231020029a165627a7a72305820ad8c7681e2759a7a81c8cdf012d75ebe71c48603ca550e6a32e9190bf54bca390029",
  "source": "pragma solidity ^0.4.18;\n\n// ----------------------------------------------------------------------------------------------\n// Gifto Token by Gifto Limited.\n// An ERC20 standard\n//\n// author: Gifto Team\n// Contact: datwhnguyen@gmail.com\n\ncontract ERC20Interface {\n    // Get the total token supply\n    function totalSupply() public constant returns (uint256 _totalSupply);\n\n    // Get the account balance of another account with address _owner\n    function balanceOf(address _owner) public constant returns (uint256 balance);\n\n    // Send _value amount of tokens to address _to\n    function transfer(address _to, uint256 _value) public returns (bool success);\n\n    // transfer _value amount of token approved by address _from\n    function transferFrom(address _from, address _to, uint256 _value) public returns (bool success);\n\n    // approve an address with _value amount of tokens\n    function approve(address _spender, uint256 _value) public returns (bool success);\n\n    // get remaining token approved by _owner to _spender\n    function allowance(address _owner, address _spender) public constant returns (uint256 remaining);\n\n    // Triggered when tokens are transferred.\n    event Transfer(address indexed _from, address indexed _to, uint256 _value);\n\n    // Triggered whenever approve(address _spender, uint256 _value) is called.\n    event Approval(address indexed _owner, address indexed _spender, uint256 _value);\n}\n\ncontract Gifto is ERC20Interface {\n    uint256 public constant decimals = 5;\n\n    string public constant symbol = \"GTO\";\n    string public constant name = \"Gifto\";\n\n    bool public _selling = true;//initial selling\n    uint256 public _totalSupply = 10 ** 14; // total supply is 10^14 unit, equivalent to 10^9 Gifto\n    uint256 public _originalBuyPrice = 43 * 10**7; // original buy 1ETH = 4300 Gifto = 43 * 10**7 unit\n\n    // Owner of this contract\n    address public owner;\n\n    // Balances Gifto for each account\n    mapping(address => uint256) private balances;\n\n    // Owner of account approves the transfer of an amount to another account\n    mapping(address => mapping (address => uint256)) private allowed;\n\n    // List of approved investors\n    mapping(address => bool) private approvedInvestorList;\n\n    // deposit\n    mapping(address => uint256) private deposit;\n\n    // icoPercent\n    uint256 public _icoPercent = 10;\n\n    // _icoSupply is the avalable unit. Initially, it is _totalSupply\n    uint256 public _icoSupply = _totalSupply * _icoPercent / 100;\n\n    // minimum buy 0.3 ETH\n    uint256 public _minimumBuy = 3 * 10 ** 17;\n\n    // maximum buy 25 ETH\n    uint256 public _maximumBuy = 25 * 10 ** 18;\n\n    // totalTokenSold\n    uint256 public totalTokenSold = 0;\n\n    // tradable\n    bool public tradable = false;\n\n    /**\n     * Functions with this modifier can only be executed by the owner\n     */\n    modifier onlyOwner() {\n        require(msg.sender == owner);\n        _;\n    }\n\n    /**\n     * Functions with this modifier check on sale status\n     * Only allow sale if _selling is on\n     */\n    modifier onSale() {\n        require(_selling);\n        _;\n    }\n\n    /**\n     * Functions with this modifier check the validity of address is investor\n     */\n    modifier validInvestor() {\n        require(approvedInvestorList[msg.sender]);\n        _;\n    }\n\n    /**\n     * Functions with this modifier check the validity of msg value\n     * value must greater than equal minimumBuyPrice\n     * total deposit must less than equal maximumBuyPrice\n     */\n    modifier validValue(){\n        // require value >= _minimumBuy AND total deposit of msg.sender <= maximumBuyPrice\n        require ( (msg.value >= _minimumBuy) &&\n                ( (deposit[msg.sender] + msg.value) <= _maximumBuy) );\n        _;\n    }\n\n    /**\n     *\n     */\n    modifier isTradable(){\n        require(tradable == true || msg.sender == owner);\n        _;\n    }\n\n    /// @dev Fallback function allows to buy ether.\n    function()\n        public\n        payable {\n        buyGifto();\n    }\n\n    /// @dev buy function allows to buy ether. for using optional data\n    function buyGifto()\n        public\n        payable\n        onSale\n        validValue\n        validInvestor {\n        uint256 requestedUnits = (msg.value * _originalBuyPrice) / 10**18;\n        require(balances[owner] >= requestedUnits);\n        // prepare transfer data\n        balances[owner] -= requestedUnits;\n        balances[msg.sender] += requestedUnits;\n\n        // increase total deposit amount\n        deposit[msg.sender] += msg.value;\n\n        // check total and auto turnOffSale\n        totalTokenSold += requestedUnits;\n        if (totalTokenSold >= _icoSupply){\n            _selling = false;\n        }\n\n        // submit transfer\n        Transfer(owner, msg.sender, requestedUnits);\n        owner.transfer(msg.value);\n    }\n\n    /// @dev Constructor\n    function Gifto()\n        public {\n        owner = msg.sender;\n        setBuyPrice(_originalBuyPrice);\n        balances[owner] = _totalSupply;\n        Transfer(0x0, owner, _totalSupply);\n    }\n\n    /// @dev Gets totalSupply\n    /// @return Total supply\n    function totalSupply()\n        public\n        constant\n        returns (uint256) {\n        return _totalSupply;\n    }\n\n    /// @dev Enables sale\n    function turnOnSale() onlyOwner\n        public {\n        _selling = true;\n    }\n\n    /// @dev Disables sale\n    function turnOffSale() onlyOwner\n        public {\n        _selling = false;\n    }\n\n    function turnOnTradable()\n        public\n        onlyOwner{\n        tradable = true;\n    }\n\n    /// @dev set new icoPercent\n    /// @param newIcoPercent new value of icoPercent\n    function setIcoPercent(uint256 newIcoPercent)\n        public\n        onlyOwner {\n        _icoPercent = newIcoPercent;\n        _icoSupply = _totalSupply * _icoPercent / 100;\n    }\n\n    /// @dev set new _maximumBuy\n    /// @param newMaximumBuy new value of _maximumBuy\n    function setMaximumBuy(uint256 newMaximumBuy)\n        public\n        onlyOwner {\n        _maximumBuy = newMaximumBuy;\n    }\n\n    /// @dev Updates buy price (owner ONLY)\n    /// @param newBuyPrice New buy price (in unit)\n    function setBuyPrice(uint256 newBuyPrice)\n        onlyOwner\n        public {\n        require(newBuyPrice>0);\n        _originalBuyPrice = newBuyPrice; // 3000 Gifto = 3000 00000 unit\n        // control _maximumBuy_USD = 10,000 USD, Gifto price is 0.1USD\n        // maximumBuy_Gifto = 100,000 Gifto = 100,000,00000 unit\n        // 3000 Gifto = 1ETH => maximumETH = 100,000,00000 / _originalBuyPrice\n        // 100,000,00000/3000 0000 ~ 33ETH => change to wei\n        _maximumBuy = 10**18 * 10000000000 /_originalBuyPrice;\n    }\n\n    /// @dev Gets account's balance\n    /// @param _addr Address of the account\n    /// @return Account balance\n    function balanceOf(address _addr)\n        public\n        constant\n        returns (uint256) {\n        return balances[_addr];\n    }\n\n    /// @dev check address is approved investor\n    /// @param _addr address\n    function isApprovedInvestor(address _addr)\n        public\n        constant\n        returns (bool) {\n        return approvedInvestorList[_addr];\n    }\n\n    /// @dev get ETH deposit\n    /// @param _addr address get deposit\n    /// @return amount deposit of an buyer\n    function getDeposit(address _addr)\n        public\n        constant\n        returns(uint256){\n        return deposit[_addr];\n}\n\n    /// @dev Adds list of new investors to the investors list and approve all\n    /// @param newInvestorList Array of new investors addresses to be added\n    function addInvestorList(address[] newInvestorList)\n        onlyOwner\n        public {\n        for (uint256 i = 0; i < newInvestorList.length; i++){\n            approvedInvestorList[newInvestorList[i]] = true;\n        }\n    }\n\n    /// @dev Removes list of investors from list\n    /// @param investorList Array of addresses of investors to be removed\n    function removeInvestorList(address[] investorList)\n        onlyOwner\n        public {\n        for (uint256 i = 0; i < investorList.length; i++){\n            approvedInvestorList[investorList[i]] = false;\n        }\n    }\n\n    /// @dev Transfers the balance from msg.sender to an account\n    /// @param _to Recipient address\n    /// @param _amount Transfered amount in unit\n    /// @return Transfer status\n    function transfer(address _to, uint256 _amount)\n        public\n        isTradable\n        returns (bool) {\n        // if sender's balance has enough unit and amount >= 0,\n        //      and the sum is not overflow,\n        // then do transfer\n        if ( (balances[msg.sender] >= _amount) &&\n             (_amount >= 0) &&\n             (balances[_to] + _amount > balances[_to]) ) {\n\n            balances[msg.sender] -= _amount;\n            balances[_to] += _amount;\n            Transfer(msg.sender, _to, _amount);\n            return true;\n        } else {\n            return false;\n        }\n    }\n\n    // Send _value amount of tokens from address _from to address _to\n    // The transferFrom method is used for a withdraw workflow, allowing contracts to send\n    // tokens on your behalf, for example to \"deposit\" to a contract address and/or to charge\n    // fees in sub-currencies; the command should fail unless the _from account has\n    // deliberately authorized the sender of the message via some mechanism; we propose\n    // these standardized APIs for approval:\n    function transferFrom(\n        address _from,\n        address _to,\n        uint256 _amount\n    )\n    public\n    isTradable\n    returns (bool success) {\n        if (balances[_from] >= _amount\n            && allowed[_from][msg.sender] >= _amount\n            && _amount > 0\n            && balances[_to] + _amount > balances[_to]) {\n            balances[_from] -= _amount;\n            allowed[_from][msg.sender] -= _amount;\n            balances[_to] += _amount;\n            Transfer(_from, _to, _amount);\n            return true;\n        } else {\n            return false;\n        }\n    }\n\n    // Allow _spender to withdraw from your account, multiple times, up to the _value amount.\n    // If this function is called again it overwrites the current allowance with _value.\n    function approve(address _spender, uint256 _amount)\n        public\n        isTradable\n        returns (bool success) {\n        allowed[msg.sender][_spender] = _amount;\n        Approval(msg.sender, _spender, _amount);\n        return true;\n    }\n\n    // get allowance\n    function allowance(address _owner, address _spender)\n        public\n        constant\n        returns (uint256 remaining) {\n        return allowed[_owner][_spender];\n    }\n\n    /// @dev Withdraws Ether in contract (Owner only)\n    /// @return Status of withdrawal\n    function withdraw() onlyOwner\n        public\n        returns (bool) {\n        return owner.send(this.balance);\n    }\n}\n\n/// @title Multisignature wallet - Allows multiple parties to agree on transactions before execution.\n/// @author Stefan George - <stefan.george@consensys.net>\ncontract MultiSigWallet {\n\n    uint constant public MAX_OWNER_COUNT = 50;\n\n    event Confirmation(address indexed sender, uint indexed transactionId);\n    event Revocation(address indexed sender, uint indexed transactionId);\n    event Submission(uint indexed transactionId);\n    event Execution(uint indexed transactionId);\n    event ExecutionFailure(uint indexed transactionId);\n    event Deposit(address indexed sender, uint value);\n    event OwnerAddition(address indexed owner);\n    event OwnerRemoval(address indexed owner);\n    event RequirementChange(uint required);\n    event CoinCreation(address coin);\n\n    mapping (uint => Transaction) public transactions;\n    mapping (uint => mapping (address => bool)) public confirmations;\n    mapping (address => bool) public isOwner;\n    address[] public owners;\n    uint public required;\n    uint public transactionCount;\n    bool flag = true;\n\n    struct Transaction {\n        address destination;\n        uint value;\n        bytes data;\n        bool executed;\n    }\n\n    modifier onlyWallet() {\n        if (msg.sender != address(this))\n            revert();\n        _;\n    }\n\n    modifier ownerDoesNotExist(address owner) {\n        if (isOwner[owner])\n            revert();\n        _;\n    }\n\n    modifier ownerExists(address owner) {\n        if (!isOwner[owner])\n            revert();\n        _;\n    }\n\n    modifier transactionExists(uint transactionId) {\n        if (transactions[transactionId].destination == 0)\n            revert();\n        _;\n    }\n\n    modifier confirmed(uint transactionId, address owner) {\n        if (!confirmations[transactionId][owner])\n            revert();\n        _;\n    }\n\n    modifier notConfirmed(uint transactionId, address owner) {\n        if (confirmations[transactionId][owner])\n            revert();\n        _;\n    }\n\n    modifier notExecuted(uint transactionId) {\n        if (transactions[transactionId].executed)\n            revert();\n        _;\n    }\n\n    modifier notNull(address _address) {\n        if (_address == 0)\n            revert();\n        _;\n    }\n\n    modifier validRequirement(uint ownerCount, uint _required) {\n        if (   ownerCount > MAX_OWNER_COUNT\n            || _required > ownerCount\n            || _required == 0\n            || ownerCount == 0)\n            revert();\n        _;\n    }\n\n    /// @dev Fallback function allows to deposit ether.\n    function()\n        payable\n    {\n        if (msg.value > 0)\n            Deposit(msg.sender, msg.value);\n    }\n\n    /*\n     * Public functions\n     */\n    /// @dev Contract constructor sets initial owners and required number of confirmations.\n    /// @param _owners List of initial owners.\n    /// @param _required Number of required confirmations.\n    function MultiSigWallet(address[] _owners, uint _required)\n        public\n        validRequirement(_owners.length, _required)\n    {\n        for (uint i=0; i<_owners.length; i++) {\n            if (isOwner[_owners[i]] || _owners[i] == 0)\n                revert();\n            isOwner[_owners[i]] = true;\n        }\n        owners = _owners;\n        required = _required;\n    }\n\n    /// @dev Allows to add a new owner. Transaction has to be sent by wallet.\n    /// @param owner Address of new owner.\n    function addOwner(address owner)\n        public\n        onlyWallet\n        ownerDoesNotExist(owner)\n        notNull(owner)\n        validRequirement(owners.length + 1, required)\n    {\n        isOwner[owner] = true;\n        owners.push(owner);\n        OwnerAddition(owner);\n    }\n\n    /// @dev Allows to remove an owner. Transaction has to be sent by wallet.\n    /// @param owner Address of owner.\n    function removeOwner(address owner)\n        public\n        onlyWallet\n        ownerExists(owner)\n    {\n        isOwner[owner] = false;\n        for (uint i=0; i<owners.length - 1; i++)\n            if (owners[i] == owner) {\n                owners[i] = owners[owners.length - 1];\n                break;\n            }\n        owners.length -= 1;\n        if (required > owners.length)\n            changeRequirement(owners.length);\n        OwnerRemoval(owner);\n    }\n\n    /// @dev Allows to replace an owner with a new owner. Transaction has to be sent by wallet.\n    /// @param owner Address of owner to be replaced.\n    /// @param owner Address of new owner.\n    function replaceOwner(address owner, address newOwner)\n        public\n        onlyWallet\n        ownerExists(owner)\n        ownerDoesNotExist(newOwner)\n    {\n        for (uint i=0; i<owners.length; i++)\n            if (owners[i] == owner) {\n                owners[i] = newOwner;\n                break;\n            }\n        isOwner[owner] = false;\n        isOwner[newOwner] = true;\n        OwnerRemoval(owner);\n        OwnerAddition(newOwner);\n    }\n\n    /// @dev Allows to change the number of required confirmations. Transaction has to be sent by wallet.\n    /// @param _required Number of required confirmations.\n    function changeRequirement(uint _required)\n        public\n        onlyWallet\n        validRequirement(owners.length, _required)\n    {\n        required = _required;\n        RequirementChange(_required);\n    }\n\n    /// @dev Allows an owner to submit and confirm a transaction.\n    /// @param destination Transaction target address.\n    /// @param value Transaction ether value.\n    /// @param data Transaction data payload.\n    /// @return Returns transaction ID.\n    function submitTransaction(address destination, uint value, bytes data)\n        public\n        returns (uint transactionId)\n    {\n        transactionId = addTransaction(destination, value, data);\n        confirmTransaction(transactionId);\n    }\n\n    /// @dev Allows an owner to confirm a transaction.\n    /// @param transactionId Transaction ID.\n    function confirmTransaction(uint transactionId)\n        public\n        ownerExists(msg.sender)\n        transactionExists(transactionId)\n        notConfirmed(transactionId, msg.sender)\n    {\n        confirmations[transactionId][msg.sender] = true;\n        Confirmation(msg.sender, transactionId);\n        executeTransaction(transactionId);\n    }\n\n    /// @dev Allows an owner to revoke a confirmation for a transaction.\n    /// @param transactionId Transaction ID.\n    function revokeConfirmation(uint transactionId)\n        public\n        ownerExists(msg.sender)\n        confirmed(transactionId, msg.sender)\n        notExecuted(transactionId)\n    {\n        confirmations[transactionId][msg.sender] = false;\n        Revocation(msg.sender, transactionId);\n    }\n\n    /// @dev Allows anyone to execute a confirmed transaction.\n    /// @param transactionId Transaction ID.\n    function executeTransaction(uint transactionId)\n        public\n        notExecuted(transactionId)\n    {\n        if (isConfirmed(transactionId)) {\n            Transaction tx = transactions[transactionId];\n            tx.executed = true;\n            if (tx.destination.call.value(tx.value)(tx.data))\n                Execution(transactionId);\n            else {\n                ExecutionFailure(transactionId);\n                tx.executed = false;\n            }\n        }\n    }\n\n    /// @dev Returns the confirmation status of a transaction.\n    /// @param transactionId Transaction ID.\n    /// @return Confirmation status.\n    function isConfirmed(uint transactionId)\n        public\n        constant\n        returns (bool)\n    {\n        uint count = 0;\n        for (uint i=0; i<owners.length; i++) {\n            if (confirmations[transactionId][owners[i]])\n                count += 1;\n            if (count == required)\n                return true;\n        }\n    }\n\n    /*\n     * Internal functions\n     */\n    /// @dev Adds a new transaction to the transaction mapping, if transaction does not exist yet.\n    /// @param destination Transaction target address.\n    /// @param value Transaction ether value.\n    /// @param data Transaction data payload.\n    /// @return Returns transaction ID.\n    function addTransaction(address destination, uint value, bytes data)\n        internal\n        notNull(destination)\n        returns (uint transactionId)\n    {\n        transactionId = transactionCount;\n        transactions[transactionId] = Transaction({\n            destination: destination,\n            value: value,\n            data: data,\n            executed: false\n        });\n        transactionCount += 1;\n        Submission(transactionId);\n    }\n\n    /*\n     * Web3 call functions\n     */\n    /// @dev Returns number of confirmations of a transaction.\n    /// @param transactionId Transaction ID.\n    /// @return Number of confirmations.\n    function getConfirmationCount(uint transactionId)\n        public\n        constant\n        returns (uint count)\n    {\n        for (uint i=0; i<owners.length; i++)\n            if (confirmations[transactionId][owners[i]])\n                count += 1;\n    }\n\n    /// @dev Returns total number of transactions after filers are applied.\n    /// @param pending Include pending transactions.\n    /// @param executed Include executed transactions.\n    /// @return Total number of transactions after filters are applied.\n    function getTransactionCount(bool pending, bool executed)\n        public\n        constant\n        returns (uint count)\n    {\n        for (uint i=0; i<transactionCount; i++)\n            if (   pending && !transactions[i].executed\n                || executed && transactions[i].executed)\n                count += 1;\n    }\n\n    /// @dev Returns list of owners.\n    /// @return List of owner addresses.\n    function getOwners()\n        public\n        constant\n        returns (address[])\n    {\n        return owners;\n    }\n\n    /// @dev Returns array with owner addresses, which confirmed transaction.\n    /// @param transactionId Transaction ID.\n    /// @return Returns array of owner addresses.\n    function getConfirmations(uint transactionId)\n        public\n        constant\n        returns (address[] _confirmations)\n    {\n        address[] memory confirmationsTemp = new address[](owners.length);\n        uint count = 0;\n        uint i;\n        for (i=0; i<owners.length; i++)\n            if (confirmations[transactionId][owners[i]]) {\n                confirmationsTemp[count] = owners[i];\n                count += 1;\n            }\n        _confirmations = new address[](count);\n        for (i=0; i<count; i++)\n            _confirmations[i] = confirmationsTemp[i];\n    }\n\n    /// @dev Returns list of transaction IDs in defined range.\n    /// @param from Index start position of transaction array.\n    /// @param to Index end position of transaction array.\n    /// @param pending Include pending transactions.\n    /// @param executed Include executed transactions.\n    /// @return Returns array of transaction IDs.\n    function getTransactionIds(uint from, uint to, bool pending, bool executed)\n        public\n        constant\n        returns (uint[] _transactionIds)\n    {\n        uint[] memory transactionIdsTemp = new uint[](transactionCount);\n        uint count = 0;\n        uint i;\n        for (i=0; i<transactionCount; i++)\n            if (   pending && !transactions[i].executed\n                || executed && transactions[i].executed)\n            {\n                transactionIdsTemp[count] = i;\n                count += 1;\n            }\n        _transactionIds = new uint[](to - from);\n        for (i=from; i<to; i++)\n            _transactionIds[i - from] = transactionIdsTemp[i];\n    }\n\n    /// @dev Create new coin.\n    function createCoin()\n        external\n        onlyWallet\n    {\n        require(flag == true);\n        CoinCreation(new Gifto());\n        flag = false;\n    }\n}\n",
  "sourcePath": "/home/gabriel/audits/gifto/contracts/Gifto.sol",
  "compiler": {
    "name": "solc",
    "version": "0.4.19+commit.c4cbbb05.Emscripten.clang"
  },
  "schemaVersion": "1.0.1",
  "updatedAt": "2018-02-04T22:18:09.181Z"
}