{
  "contractName": "TestGifto",
  "abi": [
    {
      "constant": false,
      "inputs": [],
      "name": "test_transferWithoutTradable",
      "outputs": [],
      "payable": false,
      "stateMutability": "nonpayable",
      "type": "function"
    },
    {
      "constant": false,
      "inputs": [],
      "name": "test_sendTransaction",
      "outputs": [],
      "payable": false,
      "stateMutability": "nonpayable",
      "type": "function"
    },
    {
      "constant": true,
      "inputs": [],
      "name": "addr_4",
      "outputs": [
        {
          "name": "",
          "type": "address"
        }
      ],
      "payable": false,
      "stateMutability": "view",
      "type": "function"
    },
    {
      "constant": true,
      "inputs": [],
      "name": "addr_5",
      "outputs": [
        {
          "name": "",
          "type": "address"
        }
      ],
      "payable": false,
      "stateMutability": "view",
      "type": "function"
    },
    {
      "constant": false,
      "inputs": [],
      "name": "test_transferFromOwner_WithoutTradable",
      "outputs": [],
      "payable": false,
      "stateMutability": "nonpayable",
      "type": "function"
    },
    {
      "constant": true,
      "inputs": [],
      "name": "addr_1",
      "outputs": [
        {
          "name": "",
          "type": "address"
        }
      ],
      "payable": false,
      "stateMutability": "view",
      "type": "function"
    },
    {
      "constant": false,
      "inputs": [],
      "name": "test_turnOffSale",
      "outputs": [],
      "payable": false,
      "stateMutability": "nonpayable",
      "type": "function"
    },
    {
      "constant": false,
      "inputs": [],
      "name": "test_turnOnSale",
      "outputs": [],
      "payable": false,
      "stateMutability": "nonpayable",
      "type": "function"
    },
    {
      "constant": false,
      "inputs": [],
      "name": "test_setPrice",
      "outputs": [],
      "payable": false,
      "stateMutability": "nonpayable",
      "type": "function"
    },
    {
      "constant": false,
      "inputs": [],
      "name": "allTest",
      "outputs": [],
      "payable": false,
      "stateMutability": "nonpayable",
      "type": "function"
    },
    {
      "constant": true,
      "inputs": [],
      "name": "addr_3",
      "outputs": [
        {
          "name": "",
          "type": "address"
        }
      ],
      "payable": false,
      "stateMutability": "view",
      "type": "function"
    },
    {
      "constant": false,
      "inputs": [],
      "name": "test_addInvestor",
      "outputs": [],
      "payable": false,
      "stateMutability": "nonpayable",
      "type": "function"
    },
    {
      "constant": false,
      "inputs": [],
      "name": "test_turnOnTradable",
      "outputs": [],
      "payable": false,
      "stateMutability": "nonpayable",
      "type": "function"
    },
    {
      "constant": false,
      "inputs": [],
      "name": "createGifto",
      "outputs": [],
      "payable": false,
      "stateMutability": "nonpayable",
      "type": "function"
    },
    {
      "constant": false,
      "inputs": [],
      "name": "test_tranferWithTradable",
      "outputs": [],
      "payable": false,
      "stateMutability": "nonpayable",
      "type": "function"
    },
    {
      "constant": true,
      "inputs": [],
      "name": "addr_2",
      "outputs": [
        {
          "name": "",
          "type": "address"
        }
      ],
      "payable": false,
      "stateMutability": "view",
      "type": "function"
    },
    {
      "anonymous": false,
      "inputs": [
        {
          "indexed": false,
          "name": "Wallet",
          "type": "address"
        }
      ],
      "name": "CoinCreation",
      "type": "event"
    },
    {
      "anonymous": false,
      "inputs": [
        {
          "indexed": false,
          "name": "",
          "type": "address"
        },
        {
          "indexed": false,
          "name": "",
          "type": "uint256"
        }
      ],
      "name": "coin",
      "type": "event"
    },
    {
      "anonymous": false,
      "inputs": [
        {
          "indexed": false,
          "name": "",
          "type": "string"
        },
        {
          "indexed": false,
          "name": "",
          "type": "string"
        }
      ],
      "name": "logger",
      "type": "event"
    }
  ],
  "bytecode": "0x606060405273ca35b7d915458ef540ade6068dfe2f44e8fa733c600160006101000a81548173ffffffffffffffffffffffffffffffffffffffff021916908373ffffffffffffffffffffffffffffffffffffffff1602179055507314723a09acff6d2a60dcdf7aa4aff308fddc160c600260006101000a81548173ffffffffffffffffffffffffffffffffffffffff021916908373ffffffffffffffffffffffffffffffffffffffff160217905550734b0897b0513fdc7c541b6d9d7e929c4e5364d2db600360006101000a81548173ffffffffffffffffffffffffffffffffffffffff021916908373ffffffffffffffffffffffffffffffffffffffff16021790555073583031d1113ad414f02576bd6afabfb302140225600460006101000a81548173ffffffffffffffffffffffffffffffffffffffff021916908373ffffffffffffffffffffffffffffffffffffffff16021790555073dd870fa1b7c4700f2bd7f44238821c26f7392148600560006101000a81548173ffffffffffffffffffffffffffffffffffffffff021916908373ffffffffffffffffffffffffffffffffffffffff160217905550606060405190810160405280600160009054906101000a900473ffffffffffffffffffffffffffffffffffffffff1673ffffffffffffffffffffffffffffffffffffffff1673ffffffffffffffffffffffffffffffffffffffff168152602001600260009054906101000a900473ffffffffffffffffffffffffffffffffffffffff1673ffffffffffffffffffffffffffffffffffffffff1673ffffffffffffffffffffffffffffffffffffffff168152602001600360009054906101000a900473ffffffffffffffffffffffffffffffffffffffff1673ffffffffffffffffffffffffffffffffffffffff1673ffffffffffffffffffffffffffffffffffffffff168152506006906003620002c59291906200039c565b506040805190810160405280600460009054906101000a900473ffffffffffffffffffffffffffffffffffffffff1673ffffffffffffffffffffffffffffffffffffffff1673ffffffffffffffffffffffffffffffffffffffff168152602001600560009054906101000a900473ffffffffffffffffffffffffffffffffffffffff1673ffffffffffffffffffffffffffffffffffffffff1673ffffffffffffffffffffffffffffffffffffffff168152506007906002620003899291906200042b565b5034156200039657600080fd5b62000500565b82805482825590600052602060002090810192821562000418579160200282015b82811115620004175782518260006101000a81548173ffffffffffffffffffffffffffffffffffffffff021916908373ffffffffffffffffffffffffffffffffffffffff16021790555091602001919060010190620003bd565b5b509050620004279190620004ba565b5090565b828054828255906000526020600020908101928215620004a7579160200282015b82811115620004a65782518260006101000a81548173ffffffffffffffffffffffffffffffffffffffff021916908373ffffffffffffffffffffffffffffffffffffffff160217905550916020019190600101906200044c565b5b509050620004b69190620004ba565b5090565b620004fd91905b80821115620004f957600081816101000a81549073ffffffffffffffffffffffffffffffffffffffff021916905550600101620004c1565b5090565b90565b6155f280620005106000396000f300606060405260043610620000f7576000357c0100000000000000000000000000000000000000000000000000000000900463ffffffff1680631ff8259314620000fc57806330ea03521462000114578063412f05fe146200012c5780634a827a0514620001845780634eb4743b14620001dc5780636b79ff5b14620001f45780637fa28172146200024c578063819ec7d614620002645780638510c9ed146200027c578063b36cbb3e1462000294578063c6e83a2d14620002ac578063ca99ce501462000304578063cab979ec146200031c578063de02f7351462000334578063fa4f48cf146200034c578063fc25626f1462000364575b600080fd5b34156200010857600080fd5b62000112620003bc565b005b34156200012057600080fd5b6200012a62000782565b005b34156200013857600080fd5b6200014262000a3e565b604051808273ffffffffffffffffffffffffffffffffffffffff1673ffffffffffffffffffffffffffffffffffffffff16815260200191505060405180910390f35b34156200019057600080fd5b6200019a62000a64565b604051808273ffffffffffffffffffffffffffffffffffffffff1673ffffffffffffffffffffffffffffffffffffffff16815260200191505060405180910390f35b3415620001e857600080fd5b620001f262000a8a565b005b34156200020057600080fd5b6200020a62001168565b604051808273ffffffffffffffffffffffffffffffffffffffff1673ffffffffffffffffffffffffffffffffffffffff16815260200191505060405180910390f35b34156200025857600080fd5b620002626200118e565b005b34156200027057600080fd5b6200027a62001430565b005b34156200028857600080fd5b62000292620016d2565b005b3415620002a057600080fd5b620002aa62001b49565b005b3415620002b857600080fd5b620002c262001b91565b604051808273ffffffffffffffffffffffffffffffffffffffff1673ffffffffffffffffffffffffffffffffffffffff16815260200191505060405180910390f35b34156200031057600080fd5b6200031a62001bb7565b005b34156200032857600080fd5b6200033262002298565b005b34156200034057600080fd5b6200034a620025db565b005b34156200035857600080fd5b62000362620026c1565b005b34156200037057600080fd5b6200037a6200330f565b604051808273ffffffffffffffffffffffffffffffffffffffff1673ffffffffffffffffffffffffffffffffffffffff16815260200191505060405180910390f35b6000600115156000809054906101000a900473ffffffffffffffffffffffffffffffffffffffff1673ffffffffffffffffffffffffffffffffffffffff166354840c6e6000604051602001526040518163ffffffff167c0100000000000000000000000000000000000000000000000000000000028152600401602060405180830381600087803b15156200045057600080fd5b6102c65a03f115156200046257600080fd5b50505060405180519050151514156200051c577f5c209414781e6d1e0850c1fbfa22cb69defb7657a43ac1d91c1a5a51349d1d61604051808060200180602001838103835260148152602001807f7472616461626c652069732074727565206e6f77000000000000000000000000815250602001838103825260108152602001807f74727920616e6f746865722074657374000000000000000000000000000000008152506020019250505060405180910390a16200077f565b7f5c209414781e6d1e0850c1fbfa22cb69defb7657a43ac1d91c1a5a51349d1d61604051808060200180602001838103835260308152602001807f746573743a207472616e7366657220776974686f7574207472616461626c652c81526020017f2053484f554c44204e4f5420646f6e65000000000000000000000000000000008152506040018381038252600a8152602001807f53544152542054455354000000000000000000000000000000000000000000008152506020019250505060405180910390a16330ea035260010290503073ffffffffffffffffffffffffffffffffffffffff168160405180826000191660001916815260200191505060006040518083038160008661646e5a03f191505015620006dc577f5c209414781e6d1e0850c1fbfa22cb69defb7657a43ac1d91c1a5a51349d1d61604051808060200180602001838103835260168152602001807f746573743a207472616e736665722073756363657373000000000000000000008152506020018381038252600b8152602001807f4641494c454420544553540000000000000000000000000000000000000000008152506020019250505060405180910390a16200077e565b7f5c209414781e6d1e0850c1fbfa22cb69defb7657a43ac1d91c1a5a51349d1d61604051808060200180602001838103835260158152602001807f746573743a207472616e73666572206661696c65640000000000000000000000815250602001838103825260098152602001807f50415353205445535400000000000000000000000000000000000000000000008152506020019250505060405180910390a15b5b50565b60008060008060009054906101000a900473ffffffffffffffffffffffffffffffffffffffff16620007b362003335565b808273ffffffffffffffffffffffffffffffffffffffff1673ffffffffffffffffffffffffffffffffffffffff168152602001915050604051809103906000f08015156200080057600080fd5b92506000809054906101000a900473ffffffffffffffffffffffffffffffffffffffff166200082e62003335565b808273ffffffffffffffffffffffffffffffffffffffff1673ffffffffffffffffffffffffffffffffffffffff168152602001915050604051809103906000f08015156200087b57600080fd5b915065048c2739500090506000809054906101000a900473ffffffffffffffffffffffffffffffffffffffff1673ffffffffffffffffffffffffffffffffffffffff1663a9059cbb84836000604051602001526040518363ffffffff167c0100000000000000000000000000000000000000000000000000000000028152600401808373ffffffffffffffffffffffffffffffffffffffff1673ffffffffffffffffffffffffffffffffffffffff16815260200182815260200192505050602060405180830381600087803b15156200095357600080fd5b6102c65a03f115156200096557600080fd5b50505060405180519050508273ffffffffffffffffffffffffffffffffffffffff1663edc630a583836000604051602001526040518363ffffffff167c0100000000000000000000000000000000000000000000000000000000028152600401808373ffffffffffffffffffffffffffffffffffffffff1673ffffffffffffffffffffffffffffffffffffffff16815260200182815260200192505050602060405180830381600087803b151562000a1c57600080fd5b6102c65a03f1151562000a2e57600080fd5b5050506040518051905050505050565b600460009054906101000a900473ffffffffffffffffffffffffffffffffffffffff1681565b600560009054906101000a900473ffffffffffffffffffffffffffffffffffffffff1681565b60008060008060009054906101000a900473ffffffffffffffffffffffffffffffffffffffff1673ffffffffffffffffffffffffffffffffffffffff16638da5cb5b6000604051602001526040518163ffffffff167c0100000000000000000000000000000000000000000000000000000000028152600401602060405180830381600087803b151562000b1d57600080fd5b6102c65a03f1151562000b2f57600080fd5b5050506040518051905073ffffffffffffffffffffffffffffffffffffffff163073ffffffffffffffffffffffffffffffffffffffff1614151562000c15577f5c209414781e6d1e0850c1fbfa22cb69defb7657a43ac1d91c1a5a51349d1d616040518080602001806020018381038352601b8152602001807f74686973206973206e6f742063616c6c2066726f6d206f776e65720000000000815250602001838103825260108152602001807f74727920616e6f746865722074657374000000000000000000000000000000008152506020019250505060405180910390a162001163565b600115156000809054906101000a900473ffffffffffffffffffffffffffffffffffffffff1673ffffffffffffffffffffffffffffffffffffffff166354840c6e6000604051602001526040518163ffffffff167c0100000000000000000000000000000000000000000000000000000000028152600401602060405180830381600087803b151562000ca757600080fd5b6102c65a03f1151562000cb957600080fd5b505050604051805190501515141562000d99577f5c209414781e6d1e0850c1fbfa22cb69defb7657a43ac1d91c1a5a51349d1d616040518080602001806020018381038352602d8152602001807f7472616461626c652069732074727565206e6f772c2063616e2774207475726e81526020017f206f6666207472616461626c6500000000000000000000000000000000000000815250604001838103825260108152602001807f74727920616e6f746865722074657374000000000000000000000000000000008152506020019250505060405180910390a162001163565b6000809054906101000a900473ffffffffffffffffffffffffffffffffffffffff1662000dc562003335565b808273ffffffffffffffffffffffffffffffffffffffff1673ffffffffffffffffffffffffffffffffffffffff168152602001915050604051809103906000f080151562000e1257600080fd5b92506512309ce5400091506000809054906101000a900473ffffffffffffffffffffffffffffffffffffffff1673ffffffffffffffffffffffffffffffffffffffff1663a9059cbb84846000604051602001526040518363ffffffff167c0100000000000000000000000000000000000000000000000000000000028152600401808373ffffffffffffffffffffffffffffffffffffffff1673ffffffffffffffffffffffffffffffffffffffff16815260200182815260200192505050602060405180830381600087803b151562000eea57600080fd5b6102c65a03f1151562000efc57600080fd5b50505060405180519050506000809054906101000a900473ffffffffffffffffffffffffffffffffffffffff1673ffffffffffffffffffffffffffffffffffffffff166370a08231846000604051602001526040518263ffffffff167c0100000000000000000000000000000000000000000000000000000000028152600401808273ffffffffffffffffffffffffffffffffffffffff1673ffffffffffffffffffffffffffffffffffffffff168152602001915050602060405180830381600087803b151562000fcc57600080fd5b6102c65a03f1151562000fde57600080fd5b50505060405180519050905081811415620010c0577f5c209414781e6d1e0850c1fbfa22cb69defb7657a43ac1d91c1a5a51349d1d61604051808060200180602001838103835260248152602001807f616d6f756e74206f66206e65772075736572206973206d61707065642065786181526020017f63746c7900000000000000000000000000000000000000000000000000000000815250604001838103825260098152602001807f50415353205445535400000000000000000000000000000000000000000000008152506020019250505060405180910390a162001162565b7f5c209414781e6d1e0850c1fbfa22cb69defb7657a43ac1d91c1a5a51349d1d61604051808060200180602001838103835260208152602001807f616d6f756e74206f66206e65772075736572206973206e6f74206d61707065648152506020018381038252600b8152602001807f4641494c454420544553540000000000000000000000000000000000000000008152506020019250505060405180910390a15b5b505050565b600160009054906101000a900473ffffffffffffffffffffffffffffffffffffffff1681565b60008060009054906101000a900473ffffffffffffffffffffffffffffffffffffffff1673ffffffffffffffffffffffffffffffffffffffff166323526a346040518163ffffffff167c0100000000000000000000000000000000000000000000000000000000028152600401600060405180830381600087803b15156200121557600080fd5b6102c65a03f115156200122757600080fd5b5050506000809054906101000a900473ffffffffffffffffffffffffffffffffffffffff1673ffffffffffffffffffffffffffffffffffffffff1663f9323a326000604051602001526040518163ffffffff167c0100000000000000000000000000000000000000000000000000000000028152600401602060405180830381600087803b1515620012b857600080fd5b6102c65a03f11515620012ca57600080fd5b5050506040518051905090506000151581151514156200138b577f5c209414781e6d1e0850c1fbfa22cb69defb7657a43ac1d91c1a5a51349d1d616040518080602001806020018381038352600e8152602001807f73656c6c696e673a2046616c7365000000000000000000000000000000000000815250602001838103825260098152602001807f50415353205445535400000000000000000000000000000000000000000000008152506020019250505060405180910390a16200142d565b7f5c209414781e6d1e0850c1fbfa22cb69defb7657a43ac1d91c1a5a51349d1d616040518080602001806020018381038352600d8152602001807f73656c6c696e673a2054727565000000000000000000000000000000000000008152506020018381038252600b8152602001807f4641494c454420544553540000000000000000000000000000000000000000008152506020019250505060405180910390a15b50565b60008060009054906101000a900473ffffffffffffffffffffffffffffffffffffffff1673ffffffffffffffffffffffffffffffffffffffff1663e98cf9876040518163ffffffff167c0100000000000000000000000000000000000000000000000000000000028152600401600060405180830381600087803b1515620014b757600080fd5b6102c65a03f11515620014c957600080fd5b5050506000809054906101000a900473ffffffffffffffffffffffffffffffffffffffff1673ffffffffffffffffffffffffffffffffffffffff1663f9323a326000604051602001526040518163ffffffff167c0100000000000000000000000000000000000000000000000000000000028152600401602060405180830381600087803b15156200155a57600080fd5b6102c65a03f115156200156c57600080fd5b5050506040518051905090506001151581151514156200162d577f5c209414781e6d1e0850c1fbfa22cb69defb7657a43ac1d91c1a5a51349d1d616040518080602001806020018381038352600d8152602001807f73656c6c696e673a205472756500000000000000000000000000000000000000815250602001838103825260098152602001807f50415353205445535400000000000000000000000000000000000000000000008152506020019250505060405180910390a1620016cf565b7f5c209414781e6d1e0850c1fbfa22cb69defb7657a43ac1d91c1a5a51349d1d616040518080602001806020018381038352600e8152602001807f73656c6c696e673a2046616c73650000000000000000000000000000000000008152506020018381038252600b8152602001807f4641494c454420544553540000000000000000000000000000000000000000008152506020019250505060405180910390a15b50565b6000806000806000620016e462003346565b604051809103906000f0801515620016fb57600080fd5b6000806101000a81548173ffffffffffffffffffffffffffffffffffffffff021916908373ffffffffffffffffffffffffffffffffffffffff1602179055507faae68a8a885a02fa07c5e1431d58b37a38223b24d17b8435a1942dd778bd6bef6000809054906101000a900473ffffffffffffffffffffffffffffffffffffffff16604051808273ffffffffffffffffffffffffffffffffffffffff1673ffffffffffffffffffffffffffffffffffffffff16815260200191505060405180910390a1673e733628714200009450849350846b204fce5e3e25026110000000811515620017e457fe5b0492506000809054906101000a900473ffffffffffffffffffffffffffffffffffffffff1673ffffffffffffffffffffffffffffffffffffffff166363ae8d6c866040518263ffffffff167c010000000000000000000000000000000000000000000000000000000002815260040180828152602001915050600060405180830381600087803b15156200187757600080fd5b6102c65a03f115156200188957600080fd5b5050506000809054906101000a900473ffffffffffffffffffffffffffffffffffffffff1673ffffffffffffffffffffffffffffffffffffffff166378f2144b6000604051602001526040518163ffffffff167c0100000000000000000000000000000000000000000000000000000000028152600401602060405180830381600087803b15156200191a57600080fd5b6102c65a03f115156200192c57600080fd5b5050506040518051905091506000809054906101000a900473ffffffffffffffffffffffffffffffffffffffff1673ffffffffffffffffffffffffffffffffffffffff16637fd2304f6000604051602001526040518163ffffffff167c0100000000000000000000000000000000000000000000000000000000028152600401602060405180830381600087803b1515620019c657600080fd5b6102c65a03f11515620019d857600080fd5b5050506040518051905090508382148015620019f357508281145b1562001aa0577f5c209414781e6d1e0850c1fbfa22cb69defb7657a43ac1d91c1a5a51349d1d61604051808060200180602001838103835260118152602001807f736574206e6577206275792070726963650000000000000000000000000000008152506020018381038252600b8152602001807f54455354205041535345440000000000000000000000000000000000000000008152506020019250505060405180910390a162001b42565b7f5c209414781e6d1e0850c1fbfa22cb69defb7657a43ac1d91c1a5a51349d1d61604051808060200180602001838103835260118152602001807f736574206e6577206275792070726963650000000000000000000000000000008152506020018381038252600b8152602001807f54455354204641494c45440000000000000000000000000000000000000000008152506020019250505060405180910390a15b5050505050565b62001b53620025db565b62001b5d6200118e565b62001b67620016d2565b62001b7162001430565b62001b7b62000a8a565b62001b85620003bc565b62001b8f620026c1565b565b600360009054906101000a900473ffffffffffffffffffffffffffffffffffffffff1681565b60008060008060009054906101000a900473ffffffffffffffffffffffffffffffffffffffff1673ffffffffffffffffffffffffffffffffffffffff1663bfb9f08860066040518263ffffffff167c01000000000000000000000000000000000000000000000000000000000281526004018080602001828103825283818154815260200191508054801562001ca357602002820191906000526020600020905b8160009054906101000a900473ffffffffffffffffffffffffffffffffffffffff1673ffffffffffffffffffffffffffffffffffffffff168152602001906001019080831162001c58575b505092505050600060405180830381600087803b151562001cc357600080fd5b6102c65a03f1151562001cd557600080fd5b50505060019250600091505b60068054905082101562001e3057600015156000809054906101000a900473ffffffffffffffffffffffffffffffffffffffff1673ffffffffffffffffffffffffffffffffffffffff16639b1fe0d460068581548110151562001d4057fe5b906000526020600020900160009054906101000a900473ffffffffffffffffffffffffffffffffffffffff166000604051602001526040518263ffffffff167c0100000000000000000000000000000000000000000000000000000000028152600401808273ffffffffffffffffffffffffffffffffffffffff1673ffffffffffffffffffffffffffffffffffffffff168152602001915050602060405180830381600087803b151562001df357600080fd5b6102c65a03f1151562001e0557600080fd5b505050604051805190501515141562001e22576000925062001e30565b818060010192505062001ce1565b60011515831515141562001f0b577f5c209414781e6d1e0850c1fbfa22cb69defb7657a43ac1d91c1a5a51349d1d61604051808060200180602001838103835260328152602001807f616c6c20616464656420696e766573746f72732061726520696e20617070726f81526020017f76656420696e766573746f7273206c6973740000000000000000000000000000815250604001838103825260098152602001807f50415353205445535400000000000000000000000000000000000000000000008152506020019250505060405180910390a162001fd3565b7f5c209414781e6d1e0850c1fbfa22cb69defb7657a43ac1d91c1a5a51349d1d616040518080602001806020018381038352603c8152602001807f6174206c65617374206f6e20616464656420696e766573746f72206973206e6f81526020017f7420696e20617070726f76656420696e766573746f7273206c697374000000008152506040018381038252600b8152602001807f4641494c454420544553540000000000000000000000000000000000000000008152506020019250505060405180910390a15b60019050600091505b6007805490508210156200212b57600115156000809054906101000a900473ffffffffffffffffffffffffffffffffffffffff1673ffffffffffffffffffffffffffffffffffffffff16639b1fe0d46007858154811015156200203b57fe5b906000526020600020900160009054906101000a900473ffffffffffffffffffffffffffffffffffffffff166000604051602001526040518263ffffffff167c0100000000000000000000000000000000000000000000000000000000028152600401808273ffffffffffffffffffffffffffffffffffffffff1673ffffffffffffffffffffffffffffffffffffffff168152602001915050602060405180830381600087803b1515620020ee57600080fd5b6102c65a03f115156200210057600080fd5b50505060405180519050151514156200211d57600090506200212b565b818060010192505062001fdc565b6001151583151514801562002144575060011515811515145b15620021f1577f5c209414781e6d1e0850c1fbfa22cb69defb7657a43ac1d91c1a5a51349d1d616040518080602001806020018381038352601b8152602001807f61646420617070726f76656420696e766573746f7273206c6973740000000000815250602001838103825260098152602001807f50415353205445535400000000000000000000000000000000000000000000008152506020019250505060405180910390a162002293565b7f5c209414781e6d1e0850c1fbfa22cb69defb7657a43ac1d91c1a5a51349d1d616040518080602001806020018381038352601b8152602001807f61646420617070726f76656420696e766573746f7273206c69737400000000008152506020018381038252600b8152602001807f4641494c454420544553540000000000000000000000000000000000000000008152506020019250505060405180910390a15b505050565b60007f5c209414781e6d1e0850c1fbfa22cb69defb7657a43ac1d91c1a5a51349d1d61604051808060200180602001838103835260168152602001807f746573743a207475726e206f6e207472616461626c6500000000000000000000815250602001838103825260058152602001807f53544152540000000000000000000000000000000000000000000000000000008152506020019250505060405180910390a16000809054906101000a900473ffffffffffffffffffffffffffffffffffffffff1673ffffffffffffffffffffffffffffffffffffffff16632fb1746d6040518163ffffffff167c0100000000000000000000000000000000000000000000000000000000028152600401600060405180830381600087803b1515620023c057600080fd5b6102c65a03f11515620023d257600080fd5b5050506000809054906101000a900473ffffffffffffffffffffffffffffffffffffffff1673ffffffffffffffffffffffffffffffffffffffff166354840c6e6000604051602001526040518163ffffffff167c0100000000000000000000000000000000000000000000000000000000028152600401602060405180830381600087803b15156200246357600080fd5b6102c65a03f115156200247557600080fd5b50505060405180519050905060011515811515141562002536577f5c209414781e6d1e0850c1fbfa22cb69defb7657a43ac1d91c1a5a51349d1d616040518080602001806020018381038352600e8152602001807f7472616461626c653a20747275650000000000000000000000000000000000008152506020018381038252600b8152602001807f54455354205041535345440000000000000000000000000000000000000000008152506020019250505060405180910390a1620025d8565b7f5c209414781e6d1e0850c1fbfa22cb69defb7657a43ac1d91c1a5a51349d1d616040518080602001806020018381038352600f8152602001807f7472616461626c653a2066616c736500000000000000000000000000000000008152506020018381038252600b8152602001807f54455354204641494c45440000000000000000000000000000000000000000008152506020019250505060405180910390a15b50565b620025e562003346565b604051809103906000f0801515620025fc57600080fd5b6000806101000a81548173ffffffffffffffffffffffffffffffffffffffff021916908373ffffffffffffffffffffffffffffffffffffffff1602179055507faae68a8a885a02fa07c5e1431d58b37a38223b24d17b8435a1942dd778bd6bef6000809054906101000a900473ffffffffffffffffffffffffffffffffffffffff16604051808273ffffffffffffffffffffffffffffffffffffffff1673ffffffffffffffffffffffffffffffffffffffff16815260200191505060405180910390a1565b600080600015156000809054906101000a900473ffffffffffffffffffffffffffffffffffffffff1673ffffffffffffffffffffffffffffffffffffffff166354840c6e6000604051602001526040518163ffffffff167c0100000000000000000000000000000000000000000000000000000000028152600401602060405180830381600087803b15156200275657600080fd5b6102c65a03f115156200276857600080fd5b505050604051805190501515141562002929577f5c209414781e6d1e0850c1fbfa22cb69defb7657a43ac1d91c1a5a51349d1d61604051808060200180602001838103835260688152602001807f7472616461626c652069732066616c7365206e6f772c20444f205455524e204f81526020017f4e0a204e4f54453a20796f752073686f756c6420746573742066756e6374696f81526020017f6e732077697468207472616461626c65206973206f6666206265666f7265207481526020017f68697320746573740000000000000000000000000000000000000000000000008152506080018381038252600c8152602001807f50524550414952205445535400000000000000000000000000000000000000008152506020019250505060405180910390a16000809054906101000a900473ffffffffffffffffffffffffffffffffffffffff1673ffffffffffffffffffffffffffffffffffffffff16632fb1746d6040518163ffffffff167c0100000000000000000000000000000000000000000000000000000000028152600401600060405180830381600087803b15156200291357600080fd5b6102c65a03f115156200292557600080fd5b5050505b600015156000809054906101000a900473ffffffffffffffffffffffffffffffffffffffff1673ffffffffffffffffffffffffffffffffffffffff166354840c6e6000604051602001526040518163ffffffff167c0100000000000000000000000000000000000000000000000000000000028152600401602060405180830381600087803b1515620029bb57600080fd5b6102c65a03f11515620029cd57600080fd5b505050604051805190501515141562002aad577f5c209414781e6d1e0850c1fbfa22cb69defb7657a43ac1d91c1a5a51349d1d616040518080602001806020018381038352603d8152602001807f7265636865636b3a207472616461626c652069732066616c7365206e6f772c2081526020017f636865636b207475726e4f6e5472616461626c652066756e6374696f6e000000815250604001838103825260108152602001807f74727920616e6f746865722074657374000000000000000000000000000000008152506020019250505060405180910390a16200330b565b6000809054906101000a900473ffffffffffffffffffffffffffffffffffffffff1662002ad962003335565b808273ffffffffffffffffffffffffffffffffffffffff1673ffffffffffffffffffffffffffffffffffffffff168152602001915050604051809103906000f080151562002b2657600080fd5b91506000809054906101000a900473ffffffffffffffffffffffffffffffffffffffff1662002b5462003335565b808273ffffffffffffffffffffffffffffffffffffffff1673ffffffffffffffffffffffffffffffffffffffff168152602001915050604051809103906000f080151562002ba157600080fd5b90507f5c209414781e6d1e0850c1fbfa22cb69defb7657a43ac1d91c1a5a51349d1d61604051808060200180602001838103835260168152602001807f696e697420616d6f756e7420666f722075736572203100000000000000000000815250602001838103825260078152602001807f50524550414952000000000000000000000000000000000000000000000000008152506020019250505060405180910390a16000809054906101000a900473ffffffffffffffffffffffffffffffffffffffff1673ffffffffffffffffffffffffffffffffffffffff1663a9059cbb8365048c273950006000604051602001526040518363ffffffff167c0100000000000000000000000000000000000000000000000000000000028152600401808373ffffffffffffffffffffffffffffffffffffffff1673ffffffffffffffffffffffffffffffffffffffff16815260200182815260200192505050602060405180830381600087803b151562002d1757600080fd5b6102c65a03f1151562002d2957600080fd5b50505060405180519050507f5c209414781e6d1e0850c1fbfa22cb69defb7657a43ac1d91c1a5a51349d1d61604051808060200180602001838103835260408152602001807f7465737420313a207472616e73666572207769746820616d6f756e74203e207581526020017f7365723127732062616c616e6365732c2053484f554c44204e4f5420646f6e658152506040018381038252600a8152602001807f53544152542054455354000000000000000000000000000000000000000000008152506020019250505060405180910390a1600015158273ffffffffffffffffffffffffffffffffffffffff1663edc630a583650574fbde60006000604051602001526040518363ffffffff167c0100000000000000000000000000000000000000000000000000000000028152600401808373ffffffffffffffffffffffffffffffffffffffff1673ffffffffffffffffffffffffffffffffffffffff16815260200182815260200192505050602060405180830381600087803b151562002eb157600080fd5b6102c65a03f1151562002ec357600080fd5b505050604051805190501515141562002f7d577f5c209414781e6d1e0850c1fbfa22cb69defb7657a43ac1d91c1a5a51349d1d61604051808060200180602001838103835260178152602001807f7465737420313a207472616e73666572206661696c6564000000000000000000815250602001838103825260098152602001807f50415353205445535400000000000000000000000000000000000000000000008152506020019250505060405180910390a16200301f565b7f5c209414781e6d1e0850c1fbfa22cb69defb7657a43ac1d91c1a5a51349d1d61604051808060200180602001838103835260188152602001807f7465737420313a207472616e73666572207375636365737300000000000000008152506020018381038252600b8152602001807f4641494c454420544553540000000000000000000000000000000000000000008152506020019250505060405180910390a15b7f5c209414781e6d1e0850c1fbfa22cb69defb7657a43ac1d91c1a5a51349d1d616040518080602001806020018381038352603c8152602001807f7465737420323a207472616e73666572207769746820616d6f756e74203c207581526020017f7365723127732062616c616e6365732c2053484f554c4420646f6e65000000008152506040018381038252600a8152602001807f53544152542054455354000000000000000000000000000000000000000000008152506020019250505060405180910390a1600115158273ffffffffffffffffffffffffffffffffffffffff1663edc630a5836502ba7def30006000604051602001526040518363ffffffff167c0100000000000000000000000000000000000000000000000000000000028152600401808373ffffffffffffffffffffffffffffffffffffffff1673ffffffffffffffffffffffffffffffffffffffff16815260200182815260200192505050602060405180830381600087803b15156200319c57600080fd5b6102c65a03f11515620031ae57600080fd5b505050604051805190501515141562003268577f5c209414781e6d1e0850c1fbfa22cb69defb7657a43ac1d91c1a5a51349d1d61604051808060200180602001838103835260188152602001807f7465737420323a207472616e7366657220737563636573730000000000000000815250602001838103825260098152602001807f50415353205445535400000000000000000000000000000000000000000000008152506020019250505060405180910390a16200330a565b7f5c209414781e6d1e0850c1fbfa22cb69defb7657a43ac1d91c1a5a51349d1d61604051808060200180602001838103835260118152602001807f7465737420323a207472616e73666572200000000000000000000000000000008152506020018381038252600b8152602001807f4641494c454420544553540000000000000000000000000000000000000000008152506020019250505060405180910390a15b5b5050565b600260009054906101000a900473ffffffffffffffffffffffffffffffffffffffff1681565b604051610406806200335883390190565b604051611e69806200375e8339019056006060604052341561000f57600080fd5b60405160208061040683398101604052808051906020019091905050806000806101000a81548173ffffffffffffffffffffffffffffffffffffffff021916908373ffffffffffffffffffffffffffffffffffffffff1602179055505061038b8061007b6000396000f300606060405260043610610057576000357c0100000000000000000000000000000000000000000000000000000000900463ffffffff1680634f6181f014610059578063d0e30db014610086578063edc630a514610090575b005b341561006457600080fd5b61006c6100ea565b604051808215151515815260200191505060405180910390f35b61008e610201565b005b341561009b57600080fd5b6100d0600480803573ffffffffffffffffffffffffffffffffffffffff1690602001909190803590602001909190505061026e565b604051808215151515815260200191505060405180910390f35b60007f2d7972e635b540e3a7d69ab075a726bac4112e45f631bde1b551cb069dcad6df6000809054906101000a900473ffffffffffffffffffffffffffffffffffffffff163073ffffffffffffffffffffffffffffffffffffffff1631604051808373ffffffffffffffffffffffffffffffffffffffff1673ffffffffffffffffffffffffffffffffffffffff1681526020018281526020019250505060405180910390a16000809054906101000a900473ffffffffffffffffffffffffffffffffffffffff1673ffffffffffffffffffffffffffffffffffffffff166108fc3073ffffffffffffffffffffffffffffffffffffffff16319081150290604051600060405180830381858888f19350505050905090565b7fe1fffcc4923d04b559f4d29a8bfc6cda04eb5b0d3c460751c2402c5c5cc9109c3334604051808373ffffffffffffffffffffffffffffffffffffffff1673ffffffffffffffffffffffffffffffffffffffff1681526020018281526020019250505060405180910390a1565b60008060009054906101000a900473ffffffffffffffffffffffffffffffffffffffff1673ffffffffffffffffffffffffffffffffffffffff1663a9059cbb84846000604051602001526040518363ffffffff167c0100000000000000000000000000000000000000000000000000000000028152600401808373ffffffffffffffffffffffffffffffffffffffff1673ffffffffffffffffffffffffffffffffffffffff16815260200182815260200192505050602060405180830381600087803b151561033c57600080fd5b6102c65a03f1151561034d57600080fd5b505050604051805190509050929150505600a165627a7a7230582029803800b4fb0528c58bba64b1116c54d50fbf87a2dc2ac9789b6c88dbe8a5ec0029606060405260016000806101000a81548160ff021916908315150217905550655af3107a40006001556319a14780600255600a6008556064600854600154028115156200004857fe5b04600955670429d069189e0000600a5568015af1d78b58c40000600b556000600c556000600d60006101000a81548160ff02191690831515021790555034156200009157600080fd5b33600360006101000a81548173ffffffffffffffffffffffffffffffffffffffff021916908373ffffffffffffffffffffffffffffffffffffffff160217905550620000f3600254620001d56401000000000262001474176401000000009004565b60015460046000600360009054906101000a900473ffffffffffffffffffffffffffffffffffffffff1673ffffffffffffffffffffffffffffffffffffffff1673ffffffffffffffffffffffffffffffffffffffff16815260200190815260200160002081905550600360009054906101000a900473ffffffffffffffffffffffffffffffffffffffff1673ffffffffffffffffffffffffffffffffffffffff1660007fddf252ad1be2c89b69c2b068fc378daa952ba7f163c4a11628f55a4df523b3ef6001546040518082815260200191505060405180910390a36200026d565b600360009054906101000a900473ffffffffffffffffffffffffffffffffffffffff1673ffffffffffffffffffffffffffffffffffffffff163373ffffffffffffffffffffffffffffffffffffffff161415156200023257600080fd5b6000811115156200024257600080fd5b806002819055506002546b204fce5e3e250261100000008115156200026357fe5b04600b8190555050565b611bec806200027d6000396000f30060606040526004361061018b576000357c0100000000000000000000000000000000000000000000000000000000900463ffffffff1680630188fdef1461019557806306fdde03146101b8578063095ea7b31461024657806318160ddd146102a057806323526a34146102c957806323b872dd146102de5780632fb1746d14610357578063313ce5671461036c5780633c2d6447146103955780633c50afe1146103b85780633ccfd60b146103e15780633eaaf86b1461040e578063430558c214610437578063501e3a2c1461044157806354840c6e1461046a57806363ae8d6c146104975780636b342eb8146104ba57806370a08231146104e357806378f2144b146105305780637fd2304f146105595780638da5cb5b1461058257806395d89b41146105d75780639b1fe0d4146106655780639fc39549146106b6578063a9059cbb14610710578063b5f7f6361461076a578063bfb9f08814610793578063dd62ed3e146107ed578063e1254fba14610859578063e98cf987146108a6578063f9323a32146108bb575b6101936108e8565b005b34156101a057600080fd5b6101b66004808035906020019091905050610c73565b005b34156101c357600080fd5b6101cb610cd9565b6040518080602001828103825283818151815260200191508051906020019080838360005b8381101561020b5780820151818401526020810190506101f0565b50505050905090810190601f1680156102385780820380516001836020036101000a031916815260200191505b509250505060405180910390f35b341561025157600080fd5b610286600480803573ffffffffffffffffffffffffffffffffffffffff16906020019091908035906020019091905050610d12565b604051808215151515815260200191505060405180910390f35b34156102ab57600080fd5b6102b3610e7e565b6040518082815260200191505060405180910390f35b34156102d457600080fd5b6102dc610e88565b005b34156102e957600080fd5b61033d600480803573ffffffffffffffffffffffffffffffffffffffff1690602001909190803573ffffffffffffffffffffffffffffffffffffffff16906020019091908035906020019091905050610f00565b604051808215151515815260200191505060405180910390f35b341561036257600080fd5b61036a611281565b005b341561037757600080fd5b61037f6112fa565b6040518082815260200191505060405180910390f35b34156103a057600080fd5b6103b660048080359060200190919050506112ff565b005b34156103c357600080fd5b6103cb61137e565b6040518082815260200191505060405180910390f35b34156103ec57600080fd5b6103f4611384565b604051808215151515815260200191505060405180910390f35b341561041957600080fd5b610421611455565b6040518082815260200191505060405180910390f35b61043f6108e8565b005b341561044c57600080fd5b61045461145b565b6040518082815260200191505060405180910390f35b341561047557600080fd5b61047d611461565b604051808215151515815260200191505060405180910390f35b34156104a257600080fd5b6104b86004808035906020019091905050611474565b005b34156104c557600080fd5b6104cd611509565b6040518082815260200191505060405180910390f35b34156104ee57600080fd5b61051a600480803573ffffffffffffffffffffffffffffffffffffffff1690602001909190505061150f565b6040518082815260200191505060405180910390f35b341561053b57600080fd5b610543611558565b6040518082815260200191505060405180910390f35b341561056457600080fd5b61056c61155e565b6040518082815260200191505060405180910390f35b341561058d57600080fd5b610595611564565b604051808273ffffffffffffffffffffffffffffffffffffffff1673ffffffffffffffffffffffffffffffffffffffff16815260200191505060405180910390f35b34156105e257600080fd5b6105ea61158a565b6040518080602001828103825283818151815260200191508051906020019080838360005b8381101561062a57808201518184015260208101905061060f565b50505050905090810190601f1680156106575780820380516001836020036101000a031916815260200191505b509250505060405180910390f35b341561067057600080fd5b61069c600480803573ffffffffffffffffffffffffffffffffffffffff169060200190919050506115c3565b604051808215151515815260200191505060405180910390f35b34156106c157600080fd5b61070e600480803590602001908201803590602001908080602002602001604051908101604052809392919081815260200183836020028082843782019150505050505091905050611619565b005b341561071b57600080fd5b610750600480803573ffffffffffffffffffffffffffffffffffffffff16906020019091908035906020019091905050611705565b604051808215151515815260200191505060405180910390f35b341561077557600080fd5b61077d611974565b6040518082815260200191505060405180910390f35b341561079e57600080fd5b6107eb60048080359060200190820180359060200190808060200260200160405190810160405280939291908181526020018383602002808284378201915050505050509190505061197a565b005b34156107f857600080fd5b610843600480803573ffffffffffffffffffffffffffffffffffffffff1690602001909190803573ffffffffffffffffffffffffffffffffffffffff16906020019091905050611a66565b6040518082815260200191505060405180910390f35b341561086457600080fd5b610890600480803573ffffffffffffffffffffffffffffffffffffffff16906020019091905050611aed565b6040518082815260200191505060405180910390f35b34156108b157600080fd5b6108b9611b36565b005b34156108c657600080fd5b6108ce611bae565b604051808215151515815260200191505060405180910390f35b60008060009054906101000a900460ff16151561090457600080fd5b600a5434101580156109595750600b5434600760003373ffffffffffffffffffffffffffffffffffffffff1673ffffffffffffffffffffffffffffffffffffffff168152602001908152602001600020540111155b151561096457600080fd5b600660003373ffffffffffffffffffffffffffffffffffffffff1673ffffffffffffffffffffffffffffffffffffffff16815260200190815260200160002060009054906101000a900460ff1615156109bc57600080fd5b670de0b6b3a764000060025434028115156109d357fe5b0490508060046000600360009054906101000a900473ffffffffffffffffffffffffffffffffffffffff1673ffffffffffffffffffffffffffffffffffffffff1673ffffffffffffffffffffffffffffffffffffffff1681526020019081526020016000205410151515610a4657600080fd5b8060046000600360009054906101000a900473ffffffffffffffffffffffffffffffffffffffff1673ffffffffffffffffffffffffffffffffffffffff1673ffffffffffffffffffffffffffffffffffffffff1681526020019081526020016000206000828254039250508190555080600460003373ffffffffffffffffffffffffffffffffffffffff1673ffffffffffffffffffffffffffffffffffffffff1681526020019081526020016000206000828254019250508190555034600760003373ffffffffffffffffffffffffffffffffffffffff1673ffffffffffffffffffffffffffffffffffffffff1681526020019081526020016000206000828254019250508190555080600c60008282540192505081905550600954600c54101515610b875760008060006101000a81548160ff0219169083151502179055505b3373ffffffffffffffffffffffffffffffffffffffff16600360009054906101000a900473ffffffffffffffffffffffffffffffffffffffff1673ffffffffffffffffffffffffffffffffffffffff167fddf252ad1be2c89b69c2b068fc378daa952ba7f163c4a11628f55a4df523b3ef836040518082815260200191505060405180910390a3600360009054906101000a900473ffffffffffffffffffffffffffffffffffffffff1673ffffffffffffffffffffffffffffffffffffffff166108fc349081150290604051600060405180830381858888f193505050501515610c7057600080fd5b50565b600360009054906101000a900473ffffffffffffffffffffffffffffffffffffffff1673ffffffffffffffffffffffffffffffffffffffff163373ffffffffffffffffffffffffffffffffffffffff16141515610ccf57600080fd5b80600b8190555050565b6040805190810160405280600581526020017f476966746f00000000000000000000000000000000000000000000000000000081525081565b600060011515600d60009054906101000a900460ff1615151480610d835750600360009054906101000a900473ffffffffffffffffffffffffffffffffffffffff1673ffffffffffffffffffffffffffffffffffffffff163373ffffffffffffffffffffffffffffffffffffffff16145b1515610d8e57600080fd5b81600560003373ffffffffffffffffffffffffffffffffffffffff1673ffffffffffffffffffffffffffffffffffffffff16815260200190815260200160002060008573ffffffffffffffffffffffffffffffffffffffff1673ffffffffffffffffffffffffffffffffffffffff168152602001908152602001600020819055508273ffffffffffffffffffffffffffffffffffffffff163373ffffffffffffffffffffffffffffffffffffffff167f8c5be1e5ebec7d5bd14f71427d1e84f3dd0314c0f7b2291e5b200ac8c7c3b925846040518082815260200191505060405180910390a36001905092915050565b6000600154905090565b600360009054906101000a900473ffffffffffffffffffffffffffffffffffffffff1673ffffffffffffffffffffffffffffffffffffffff163373ffffffffffffffffffffffffffffffffffffffff16141515610ee457600080fd5b60008060006101000a81548160ff021916908315150217905550565b600060011515600d60009054906101000a900460ff1615151480610f715750600360009054906101000a900473ffffffffffffffffffffffffffffffffffffffff1673ffffffffffffffffffffffffffffffffffffffff163373ffffffffffffffffffffffffffffffffffffffff16145b1515610f7c57600080fd5b81600460008673ffffffffffffffffffffffffffffffffffffffff1673ffffffffffffffffffffffffffffffffffffffff1681526020019081526020016000205410158015611047575081600560008673ffffffffffffffffffffffffffffffffffffffff1673ffffffffffffffffffffffffffffffffffffffff16815260200190815260200160002060003373ffffffffffffffffffffffffffffffffffffffff1673ffffffffffffffffffffffffffffffffffffffff1681526020019081526020016000205410155b80156110535750600082115b80156110de5750600460008473ffffffffffffffffffffffffffffffffffffffff1673ffffffffffffffffffffffffffffffffffffffff1681526020019081526020016000205482600460008673ffffffffffffffffffffffffffffffffffffffff1673ffffffffffffffffffffffffffffffffffffffff1681526020019081526020016000205401115b156112755781600460008673ffffffffffffffffffffffffffffffffffffffff1673ffffffffffffffffffffffffffffffffffffffff1681526020019081526020016000206000828254039250508190555081600560008673ffffffffffffffffffffffffffffffffffffffff1673ffffffffffffffffffffffffffffffffffffffff16815260200190815260200160002060003373ffffffffffffffffffffffffffffffffffffffff1673ffffffffffffffffffffffffffffffffffffffff1681526020019081526020016000206000828254039250508190555081600460008573ffffffffffffffffffffffffffffffffffffffff1673ffffffffffffffffffffffffffffffffffffffff168152602001908152602001600020600082825401925050819055508273ffffffffffffffffffffffffffffffffffffffff168473ffffffffffffffffffffffffffffffffffffffff167fddf252ad1be2c89b69c2b068fc378daa952ba7f163c4a11628f55a4df523b3ef846040518082815260200191505060405180910390a36001905061127a565b600090505b9392505050565b600360009054906101000a900473ffffffffffffffffffffffffffffffffffffffff1673ffffffffffffffffffffffffffffffffffffffff163373ffffffffffffffffffffffffffffffffffffffff161415156112dd57600080fd5b6001600d60006101000a81548160ff021916908315150217905550565b600581565b600360009054906101000a900473ffffffffffffffffffffffffffffffffffffffff1673ffffffffffffffffffffffffffffffffffffffff163373ffffffffffffffffffffffffffffffffffffffff1614151561135b57600080fd5b8060088190555060646008546001540281151561137457fe5b0460098190555050565b60095481565b6000600360009054906101000a900473ffffffffffffffffffffffffffffffffffffffff1673ffffffffffffffffffffffffffffffffffffffff163373ffffffffffffffffffffffffffffffffffffffff161415156113e257600080fd5b600360009054906101000a900473ffffffffffffffffffffffffffffffffffffffff1673ffffffffffffffffffffffffffffffffffffffff166108fc3073ffffffffffffffffffffffffffffffffffffffff16319081150290604051600060405180830381858888f19350505050905090565b60015481565b60085481565b600d60009054906101000a900460ff1681565b600360009054906101000a900473ffffffffffffffffffffffffffffffffffffffff1673ffffffffffffffffffffffffffffffffffffffff163373ffffffffffffffffffffffffffffffffffffffff161415156114d057600080fd5b6000811115156114df57600080fd5b806002819055506002546b204fce5e3e250261100000008115156114ff57fe5b04600b8190555050565b600a5481565b6000600460008373ffffffffffffffffffffffffffffffffffffffff1673ffffffffffffffffffffffffffffffffffffffff168152602001908152602001600020549050919050565b60025481565b600b5481565b600360009054906101000a900473ffffffffffffffffffffffffffffffffffffffff1681565b6040805190810160405280600381526020017f47544f000000000000000000000000000000000000000000000000000000000081525081565b6000600660008373ffffffffffffffffffffffffffffffffffffffff1673ffffffffffffffffffffffffffffffffffffffff16815260200190815260200160002060009054906101000a900460ff169050919050565b6000600360009054906101000a900473ffffffffffffffffffffffffffffffffffffffff1673ffffffffffffffffffffffffffffffffffffffff163373ffffffffffffffffffffffffffffffffffffffff1614151561167757600080fd5b600090505b815181101561170157600060066000848481518110151561169957fe5b9060200190602002015173ffffffffffffffffffffffffffffffffffffffff1673ffffffffffffffffffffffffffffffffffffffff16815260200190815260200160002060006101000a81548160ff021916908315150217905550808060010191505061167c565b5050565b600060011515600d60009054906101000a900460ff16151514806117765750600360009054906101000a900473ffffffffffffffffffffffffffffffffffffffff1673ffffffffffffffffffffffffffffffffffffffff163373ffffffffffffffffffffffffffffffffffffffff16145b151561178157600080fd5b81600460003373ffffffffffffffffffffffffffffffffffffffff1673ffffffffffffffffffffffffffffffffffffffff16815260200190815260200160002054101580156117d1575060008210155b801561185c5750600460008473ffffffffffffffffffffffffffffffffffffffff1673ffffffffffffffffffffffffffffffffffffffff1681526020019081526020016000205482600460008673ffffffffffffffffffffffffffffffffffffffff1673ffffffffffffffffffffffffffffffffffffffff1681526020019081526020016000205401115b156119695781600460003373ffffffffffffffffffffffffffffffffffffffff1673ffffffffffffffffffffffffffffffffffffffff1681526020019081526020016000206000828254039250508190555081600460008573ffffffffffffffffffffffffffffffffffffffff1673ffffffffffffffffffffffffffffffffffffffff168152602001908152602001600020600082825401925050819055508273ffffffffffffffffffffffffffffffffffffffff163373ffffffffffffffffffffffffffffffffffffffff167fddf252ad1be2c89b69c2b068fc378daa952ba7f163c4a11628f55a4df523b3ef846040518082815260200191505060405180910390a36001905061196e565b600090505b92915050565b600c5481565b6000600360009054906101000a900473ffffffffffffffffffffffffffffffffffffffff1673ffffffffffffffffffffffffffffffffffffffff163373ffffffffffffffffffffffffffffffffffffffff161415156119d857600080fd5b600090505b8151811015611a625760016006600084848151811015156119fa57fe5b9060200190602002015173ffffffffffffffffffffffffffffffffffffffff1673ffffffffffffffffffffffffffffffffffffffff16815260200190815260200160002060006101000a81548160ff02191690831515021790555080806001019150506119dd565b5050565b6000600560008473ffffffffffffffffffffffffffffffffffffffff1673ffffffffffffffffffffffffffffffffffffffff16815260200190815260200160002060008373ffffffffffffffffffffffffffffffffffffffff1673ffffffffffffffffffffffffffffffffffffffff16815260200190815260200160002054905092915050565b6000600760008373ffffffffffffffffffffffffffffffffffffffff1673ffffffffffffffffffffffffffffffffffffffff168152602001908152602001600020549050919050565b600360009054906101000a900473ffffffffffffffffffffffffffffffffffffffff1673ffffffffffffffffffffffffffffffffffffffff163373ffffffffffffffffffffffffffffffffffffffff16141515611b9257600080fd5b60016000806101000a81548160ff021916908315150217905550565b6000809054906101000a900460ff16815600a165627a7a72305820077fef797e36b1896a8b85855b54680c98e4f1f912219aa6d3e56a1c738231020029a165627a7a7230582088530aa8fcaf46ac097e9399b7f2f6ba1c8c8539ea1cf3a71849a989de29208f0029",
  "source": "pragma solidity ^0.4.18;\n\nimport \"./Gifto.sol\";\n\ncontract User {\n    event Deposit(address, uint256);\n    event SendETH(address, uint256);\n    Gifto gifto;\n    function User(Gifto _gifto){\n        gifto = _gifto;\n    }\n    \n    function()\n    payable\n    external{\n        \n    }\n    function deposit()\n    payable\n    public{\n        Deposit(msg.sender, msg.value);\n    }\n    \n    function do_Transfer(address to, uint256 amount)\n    external \n    returns(bool){\n        return gifto.transfer(to, amount);\n    }\n    \n    function sendETHtoGifto()\n    external\n    returns(bool)\n    {\n        SendETH(address(gifto), this.balance);\n        return gifto.send(this.balance);\n    }\n}\n\ncontract TestGifto{\n    event CoinCreation(address Wallet);\n    event coin(address, uint256);\n    event logger(string, string);\n    Gifto gifto;\n    \n    address public addr_1 = 0xca35b7d915458ef540ade6068dfe2f44e8fa733c;\n    address public addr_2 = 0x14723a09acff6d2a60dcdf7aa4aff308fddc160c;\n    address public addr_3 = 0x4b0897b0513fdc7c541b6d9d7e929c4e5364d2db;\n    address public addr_4 = 0x583031d1113ad414f02576bd6afabfb302140225;\n    address public addr_5 = 0xdd870fa1b7c4700f2bd7f44238821c26f7392148;\n    \n    address[] investorList = [addr_1, addr_2, addr_3];\n    address[] nonInvestorList = [addr_4, addr_5];\n\n    function createGifto() \n    public {\n        gifto = new Gifto();\n        CoinCreation(address(gifto));\n    }\n    \n    function test_turnOnSale()\n    public{\n        gifto.turnOnSale();\n        bool _selling = gifto._selling();\n        \n        //selling should be true after turn on\n        if(_selling == true){\n            logger(\"selling: True\", \"PASS TEST\");\n        }\n        else{\n            logger(\"selling: False\", \"FAILED TEST\");\n        }\n    }\n    \n    function test_turnOffSale()\n    public {\n        gifto.turnOffSale();\n        bool _selling = gifto._selling();\n        \n        //selling should be FALSE after turn off\n        if(_selling == false){\n            logger(\"selling: False\", \"PASS TEST\");\n        }\n        else{\n            logger(\"selling: True\", \"FAILED TEST\");\n        }\n    }\n    \n    function test_sendTransaction()\n    external {\n        User user1 = new User(gifto);\n        User user2 = new User(gifto);\n\n        uint256 amount = 5000000000000;\n        // init Gifto from owner for user 1, 5000000000000 unit\n        gifto.transfer(address(user1), amount);\n        \n        user1.do_Transfer(address(user2), amount);\n    }\n    \n    function test_transferWithoutTradable()\n    public {\n        if (gifto.tradable() == true){\n            logger(\"tradable is true now\", \"try another test\");\n            return;\n        }\n        // test: transfer with amount > user1's balances\n        logger(\"test: transfer without tradable, SHOULD NOT done\", \"START TEST\");\n        // call low level function to control revert\n        // this is data for \"test_sendTransaction()\"\n        bytes32 data = 0x30ea0352;\n        \n        // SHOULD NOT be done\n        if (this.call(data)){\n            logger(\"test: transfer success\", \"FAILED TEST\");\n        }\n        else{\n            logger(\"test: transfer failed\", \"PASS TEST\");\n        }\n    }\n    \n    function test_tranferWithTradable()\n    public{\n        if (gifto.tradable() == false){\n            logger(\"tradable is false now, DO TURN ON\\n NOTE: you should test functions with tradable is off before this test\", \"PREPAIR TEST\");\n            gifto.turnOnTradable();\n        }\n        //recheck\n        if (gifto.tradable() == false){\n            logger(\"recheck: tradable is false now, check turnOnTradable function\", \"try another test\");\n            return;\n        }\n\n        User user1 = new User(gifto);\n        User user2 = new User(gifto);\n        // init Gifto from owner for user 1, 5000000000000 unit\n        logger(\"init amount for user 1\", \"PREPAIR\");\n        gifto.transfer(address(user1), 5000000000000);\n        \n        // test 1: transfer with amount > user1's balances\n        logger(\"test 1: transfer with amount > user1's balances, SHOULD NOT done\", \"START TEST\");\n        if (user1.do_Transfer(address(user2), 6000000000000) == false){\n            logger(\"test 1: transfer failed\", \"PASS TEST\");\n        }\n        else{\n            logger(\"test 1: transfer success\", \"FAILED TEST\");\n        }\n        \n        // test 2: transfer with amount <= user1's balances\n        logger(\"test 2: transfer with amount < user1's balances, SHOULD done\", \"START TEST\");\n        if (user1.do_Transfer(address(user2), 3000000000000) == true){\n            logger(\"test 2: transfer success\", \"PASS TEST\");\n        }\n        else {\n            logger(\"test 2: transfer \", \"FAILED TEST\");\n        }\n    }\n    \n    function test_transferFromOwner_WithoutTradable() \n    public {\n        if(this != gifto.owner()){\n            logger(\"this is not call from owner\", \"try another test\");\n            return;\n        }\n        if (gifto.tradable() == true){\n            logger(\"tradable is true now, can't turn off tradable\", \"try another test\");\n            return;\n        }\n        // create tmp user\n        User tmp = new User(gifto);\n        // init amount 200,000,000,00000\n        uint256 amount = 20000000000000;\n        // do transfer from owner 200,000,000,00000 to user tmp\n        gifto.transfer(address(tmp), amount);\n        \n        // check the balance of user tmp mapping with amount\n        uint256 balanceOfUser = gifto.balanceOf(address(tmp));\n        \n        // checking test\n        if (balanceOfUser == amount){\n            logger(\"amount of new user is mapped exactly\", \"PASS TEST\");\n        }\n        else {\n            logger(\"amount of new user is not mapped\", \"FAILED TEST\");\n        }\n    }\n    \n    function test_addInvestor() \n    public {\n        gifto.addInvestorList(investorList);\n\n        // test investor is in the list\n        bool testInInvestorListResult = true;\n        \n        for (uint256 i = 0; i < investorList.length; i++) {\n            if (gifto.isApprovedInvestor(investorList[i]) == false) {\n                testInInvestorListResult = false;\n                break;\n            }\n        }\n        \n        if (testInInvestorListResult == true) {\n            logger(\"all added investors are in approved investors list\", \"PASS TEST\");\n        }\n        else {\n            logger(\"at least on added investor is not in approved investors list\", \"FAILED TEST\");\n        }\n\n        // test non-investor is in the list\n        bool testNotInInvestorListResult = true;\n        \n        for (i = 0; i < nonInvestorList.length; i++) {\n            if (gifto.isApprovedInvestor(nonInvestorList[i]) == true) {\n                testNotInInvestorListResult = false;\n                break;\n            }\n        }\n        \n        if (testInInvestorListResult == true && testNotInInvestorListResult == true) {\n            logger(\"add approved investors list\", \"PASS TEST\");\n        }\n        else {\n            logger(\"add approved investors list\", \"FAILED TEST\");\n        }\n\n    }\n    \n    function test_turnOnTradable() \n    public{\n        logger(\"test: turn on tradable\", \"START\");\n        gifto.turnOnTradable();\n        bool tradable = gifto.tradable();\n\n        // tradable should be true after turning it ON\n        if(tradable == true){\n            logger(\"tradable: true\", \"TEST PASSED\");\n        }\n        else{\n            logger(\"tradable: false\", \"TEST FAILED\");\n        }\n\n    }\n    \n    function test_setPrice()\n    public {\n        gifto = new Gifto();\n        CoinCreation(address(gifto));\n\n        uint256 newPrice = 45 * 10**17;\n        \n        // consider to use the value computed from external source, should not from our code\n        uint256 expected_originalBuyPrice = newPrice;\n        uint256 expected_maximumBuy = 10**18 * 10000000000 / newPrice;\n        \n        gifto.setBuyPrice(newPrice);\n        \n        uint256 new_originalBuyPrice = gifto._originalBuyPrice();\n        uint256 new_maximumBuy = gifto._maximumBuy();\n        \n        if (new_originalBuyPrice == expected_originalBuyPrice && \n            new_maximumBuy == expected_maximumBuy) {\n            logger(\"set new buy price\", \"TEST PASSED\");\n        }\n        else {\n            logger(\"set new buy price\", \"TEST FAILED\");\n        }\n    }\n\n    \n    \n    function allTest(){\n        createGifto();\n        test_turnOffSale();\n        test_setPrice();\n        test_turnOnSale();\n        test_transferFromOwner_WithoutTradable();\n        test_transferWithoutTradable();\n        test_tranferWithTradable();\n    }\n}",
  "sourcePath": "/home/gabriel/audits/gifto/contracts/Gifto_Test.sol",
  "compiler": {
    "name": "solc",
    "version": "0.4.19+commit.c4cbbb05.Emscripten.clang"
  },
  "schemaVersion": "1.0.1",
  "updatedAt": "2018-02-04T21:47:16.783Z"
}