{
  "contractName": "User",
  "abi": [
    {
      "inputs": [
        {
          "name": "_gifto",
          "type": "address"
        }
      ],
      "payable": false,
      "stateMutability": "nonpayable",
      "type": "constructor"
    },
    {
      "payable": true,
      "stateMutability": "payable",
      "type": "fallback"
    },
    {
      "anonymous": false,
      "inputs": [
        {
          "indexed": false,
          "name": "",
          "type": "address"
        },
        {
          "indexed": false,
          "name": "",
          "type": "uint256"
        }
      ],
      "name": "Deposit",
      "type": "event"
    },
    {
      "anonymous": false,
      "inputs": [
        {
          "indexed": false,
          "name": "",
          "type": "address"
        },
        {
          "indexed": false,
          "name": "",
          "type": "uint256"
        }
      ],
      "name": "SendETH",
      "type": "event"
    },
    {
      "constant": false,
      "inputs": [],
      "name": "deposit",
      "outputs": [],
      "payable": true,
      "stateMutability": "payable",
      "type": "function"
    },
    {
      "constant": false,
      "inputs": [
        {
          "name": "to",
          "type": "address"
        },
        {
          "name": "amount",
          "type": "uint256"
        }
      ],
      "name": "do_Transfer",
      "outputs": [
        {
          "name": "",
          "type": "bool"
        }
      ],
      "payable": false,
      "stateMutability": "nonpayable",
      "type": "function"
    },
    {
      "constant": false,
      "inputs": [],
      "name": "sendETHtoGifto",
      "outputs": [
        {
          "name": "",
          "type": "bool"
        }
      ],
      "payable": false,
      "stateMutability": "nonpayable",
      "type": "function"
    }
  ],
  "bytecode": "0x6060604052341561000f57600080fd5b60405160208061040683398101604052808051906020019091905050806000806101000a81548173ffffffffffffffffffffffffffffffffffffffff021916908373ffffffffffffffffffffffffffffffffffffffff1602179055505061038b8061007b6000396000f300606060405260043610610057576000357c0100000000000000000000000000000000000000000000000000000000900463ffffffff1680634f6181f014610059578063d0e30db014610086578063edc630a514610090575b005b341561006457600080fd5b61006c6100ea565b604051808215151515815260200191505060405180910390f35b61008e610201565b005b341561009b57600080fd5b6100d0600480803573ffffffffffffffffffffffffffffffffffffffff1690602001909190803590602001909190505061026e565b604051808215151515815260200191505060405180910390f35b60007f2d7972e635b540e3a7d69ab075a726bac4112e45f631bde1b551cb069dcad6df6000809054906101000a900473ffffffffffffffffffffffffffffffffffffffff163073ffffffffffffffffffffffffffffffffffffffff1631604051808373ffffffffffffffffffffffffffffffffffffffff1673ffffffffffffffffffffffffffffffffffffffff1681526020018281526020019250505060405180910390a16000809054906101000a900473ffffffffffffffffffffffffffffffffffffffff1673ffffffffffffffffffffffffffffffffffffffff166108fc3073ffffffffffffffffffffffffffffffffffffffff16319081150290604051600060405180830381858888f19350505050905090565b7fe1fffcc4923d04b559f4d29a8bfc6cda04eb5b0d3c460751c2402c5c5cc9109c3334604051808373ffffffffffffffffffffffffffffffffffffffff1673ffffffffffffffffffffffffffffffffffffffff1681526020018281526020019250505060405180910390a1565b60008060009054906101000a900473ffffffffffffffffffffffffffffffffffffffff1673ffffffffffffffffffffffffffffffffffffffff1663a9059cbb84846000604051602001526040518363ffffffff167c0100000000000000000000000000000000000000000000000000000000028152600401808373ffffffffffffffffffffffffffffffffffffffff1673ffffffffffffffffffffffffffffffffffffffff16815260200182815260200192505050602060405180830381600087803b151561033c57600080fd5b6102c65a03f1151561034d57600080fd5b505050604051805190509050929150505600a165627a7a7230582029803800b4fb0528c58bba64b1116c54d50fbf87a2dc2ac9789b6c88dbe8a5ec0029",
  "source": "pragma solidity ^0.4.18;\n\nimport \"./Gifto.sol\";\n\ncontract User {\n    event Deposit(address, uint256);\n    event SendETH(address, uint256);\n    Gifto gifto;\n    function User(Gifto _gifto){\n        gifto = _gifto;\n    }\n    \n    function()\n    payable\n    external{\n        \n    }\n    function deposit()\n    payable\n    public{\n        Deposit(msg.sender, msg.value);\n    }\n    \n    function do_Transfer(address to, uint256 amount)\n    external \n    returns(bool){\n        return gifto.transfer(to, amount);\n    }\n    \n    function sendETHtoGifto()\n    external\n    returns(bool)\n    {\n        SendETH(address(gifto), this.balance);\n        return gifto.send(this.balance);\n    }\n}\n\ncontract TestGifto{\n    event CoinCreation(address Wallet);\n    event coin(address, uint256);\n    event logger(string, string);\n    Gifto gifto;\n    \n    address public addr_1 = 0xca35b7d915458ef540ade6068dfe2f44e8fa733c;\n    address public addr_2 = 0x14723a09acff6d2a60dcdf7aa4aff308fddc160c;\n    address public addr_3 = 0x4b0897b0513fdc7c541b6d9d7e929c4e5364d2db;\n    address public addr_4 = 0x583031d1113ad414f02576bd6afabfb302140225;\n    address public addr_5 = 0xdd870fa1b7c4700f2bd7f44238821c26f7392148;\n    \n    address[] investorList = [addr_1, addr_2, addr_3];\n    address[] nonInvestorList = [addr_4, addr_5];\n\n    function createGifto() \n    public {\n        gifto = new Gifto();\n        CoinCreation(address(gifto));\n    }\n    \n    function test_turnOnSale()\n    public{\n        gifto.turnOnSale();\n        bool _selling = gifto._selling();\n        \n        //selling should be true after turn on\n        if(_selling == true){\n            logger(\"selling: True\", \"PASS TEST\");\n        }\n        else{\n            logger(\"selling: False\", \"FAILED TEST\");\n        }\n    }\n    \n    function test_turnOffSale()\n    public {\n        gifto.turnOffSale();\n        bool _selling = gifto._selling();\n        \n        //selling should be FALSE after turn off\n        if(_selling == false){\n            logger(\"selling: False\", \"PASS TEST\");\n        }\n        else{\n            logger(\"selling: True\", \"FAILED TEST\");\n        }\n    }\n    \n    function test_sendTransaction()\n    external {\n        User user1 = new User(gifto);\n        User user2 = new User(gifto);\n\n        uint256 amount = 5000000000000;\n        // init Gifto from owner for user 1, 5000000000000 unit\n        gifto.transfer(address(user1), amount);\n        \n        user1.do_Transfer(address(user2), amount);\n    }\n    \n    function test_transferWithoutTradable()\n    public {\n        if (gifto.tradable() == true){\n            logger(\"tradable is true now\", \"try another test\");\n            return;\n        }\n        // test: transfer with amount > user1's balances\n        logger(\"test: transfer without tradable, SHOULD NOT done\", \"START TEST\");\n        // call low level function to control revert\n        // this is data for \"test_sendTransaction()\"\n        bytes32 data = 0x30ea0352;\n        \n        // SHOULD NOT be done\n        if (this.call(data)){\n            logger(\"test: transfer success\", \"FAILED TEST\");\n        }\n        else{\n            logger(\"test: transfer failed\", \"PASS TEST\");\n        }\n    }\n    \n    function test_tranferWithTradable()\n    public{\n        if (gifto.tradable() == false){\n            logger(\"tradable is false now, DO TURN ON\\n NOTE: you should test functions with tradable is off before this test\", \"PREPAIR TEST\");\n            gifto.turnOnTradable();\n        }\n        //recheck\n        if (gifto.tradable() == false){\n            logger(\"recheck: tradable is false now, check turnOnTradable function\", \"try another test\");\n            return;\n        }\n\n        User user1 = new User(gifto);\n        User user2 = new User(gifto);\n        // init Gifto from owner for user 1, 5000000000000 unit\n        logger(\"init amount for user 1\", \"PREPAIR\");\n        gifto.transfer(address(user1), 5000000000000);\n        \n        // test 1: transfer with amount > user1's balances\n        logger(\"test 1: transfer with amount > user1's balances, SHOULD NOT done\", \"START TEST\");\n        if (user1.do_Transfer(address(user2), 6000000000000) == false){\n            logger(\"test 1: transfer failed\", \"PASS TEST\");\n        }\n        else{\n            logger(\"test 1: transfer success\", \"FAILED TEST\");\n        }\n        \n        // test 2: transfer with amount <= user1's balances\n        logger(\"test 2: transfer with amount < user1's balances, SHOULD done\", \"START TEST\");\n        if (user1.do_Transfer(address(user2), 3000000000000) == true){\n            logger(\"test 2: transfer success\", \"PASS TEST\");\n        }\n        else {\n            logger(\"test 2: transfer \", \"FAILED TEST\");\n        }\n    }\n    \n    function test_transferFromOwner_WithoutTradable() \n    public {\n        if(this != gifto.owner()){\n            logger(\"this is not call from owner\", \"try another test\");\n            return;\n        }\n        if (gifto.tradable() == true){\n            logger(\"tradable is true now, can't turn off tradable\", \"try another test\");\n            return;\n        }\n        // create tmp user\n        User tmp = new User(gifto);\n        // init amount 200,000,000,00000\n        uint256 amount = 20000000000000;\n        // do transfer from owner 200,000,000,00000 to user tmp\n        gifto.transfer(address(tmp), amount);\n        \n        // check the balance of user tmp mapping with amount\n        uint256 balanceOfUser = gifto.balanceOf(address(tmp));\n        \n        // checking test\n        if (balanceOfUser == amount){\n            logger(\"amount of new user is mapped exactly\", \"PASS TEST\");\n        }\n        else {\n            logger(\"amount of new user is not mapped\", \"FAILED TEST\");\n        }\n    }\n    \n    function test_addInvestor() \n    public {\n        gifto.addInvestorList(investorList);\n\n        // test investor is in the list\n        bool testInInvestorListResult = true;\n        \n        for (uint256 i = 0; i < investorList.length; i++) {\n            if (gifto.isApprovedInvestor(investorList[i]) == false) {\n                testInInvestorListResult = false;\n                break;\n            }\n        }\n        \n        if (testInInvestorListResult == true) {\n            logger(\"all added investors are in approved investors list\", \"PASS TEST\");\n        }\n        else {\n            logger(\"at least on added investor is not in approved investors list\", \"FAILED TEST\");\n        }\n\n        // test non-investor is in the list\n        bool testNotInInvestorListResult = true;\n        \n        for (i = 0; i < nonInvestorList.length; i++) {\n            if (gifto.isApprovedInvestor(nonInvestorList[i]) == true) {\n                testNotInInvestorListResult = false;\n                break;\n            }\n        }\n        \n        if (testInInvestorListResult == true && testNotInInvestorListResult == true) {\n            logger(\"add approved investors list\", \"PASS TEST\");\n        }\n        else {\n            logger(\"add approved investors list\", \"FAILED TEST\");\n        }\n\n    }\n    \n    function test_turnOnTradable() \n    public{\n        logger(\"test: turn on tradable\", \"START\");\n        gifto.turnOnTradable();\n        bool tradable = gifto.tradable();\n\n        // tradable should be true after turning it ON\n        if(tradable == true){\n            logger(\"tradable: true\", \"TEST PASSED\");\n        }\n        else{\n            logger(\"tradable: false\", \"TEST FAILED\");\n        }\n\n    }\n    \n    function test_setPrice()\n    public {\n        gifto = new Gifto();\n        CoinCreation(address(gifto));\n\n        uint256 newPrice = 45 * 10**17;\n        \n        // consider to use the value computed from external source, should not from our code\n        uint256 expected_originalBuyPrice = newPrice;\n        uint256 expected_maximumBuy = 10**18 * 10000000000 / newPrice;\n        \n        gifto.setBuyPrice(newPrice);\n        \n        uint256 new_originalBuyPrice = gifto._originalBuyPrice();\n        uint256 new_maximumBuy = gifto._maximumBuy();\n        \n        if (new_originalBuyPrice == expected_originalBuyPrice && \n            new_maximumBuy == expected_maximumBuy) {\n            logger(\"set new buy price\", \"TEST PASSED\");\n        }\n        else {\n            logger(\"set new buy price\", \"TEST FAILED\");\n        }\n    }\n\n    \n    \n    function allTest(){\n        createGifto();\n        test_turnOffSale();\n        test_setPrice();\n        test_turnOnSale();\n        test_transferFromOwner_WithoutTradable();\n        test_transferWithoutTradable();\n        test_tranferWithTradable();\n    }\n}",
  "sourcePath": "/home/gabriel/audits/gifto/contracts/Gifto_Test.sol",
  "compiler": {
    "name": "solc",
    "version": "0.4.19+commit.c4cbbb05.Emscripten.clang"
  },
  "schemaVersion": "1.0.1",
  "updatedAt": "2018-02-04T21:47:16.786Z"
}